:020000040800F2
:1000000000280020E90C0008190B00081F0B00084D
:10001000250B00082B0B0008310B00080000000026
:10002000000000000000000000000000370B000886
:10003000430B0008000000004F0B00085B0B00089A
:10004000310D0008310D0008310D0008310D000898
:10005000310D0008310D0008310D0008310D000888
:10006000310D0008310D0008310D0008310D000878
:10007000310D0008310D0008310D0008310D000868
:10008000310D0008310D0008310D0008310D000858
:10009000310D0008310D0008310D0008310D000848
:1000A000310D0008310D0008310D0008310D000838
:1000B000690B0008310D000800000000310D000838
:1000C000310D00080000000000000000310D0008A4
:1000D00000000000310D0008310D00080000000094
:1000E000310D0008310D0008310D0008000000003E
:1000F0000000000000000000000000000000000000
:0C01000000000000000000005FF808F1A3
:10010C0010B5054C237833B9044B13B10448AFF345
:10011C0000800123237010BDB400002000000000FB
:10012C006023000808B5034B1BB103490348AFF328
:10013C00008008BD00000000B8000020602300080B
:10014C0080B485B000AF7860094A7B685B011344CA
:10015C001C331B68FB60064A7B685B0113441C3331
:10016C0000221A60FB6818461437BD4680BC7047E5
:10017C000000002080B483B000AF7860054A7B6833
:10018C005B0113441C3301221A6000BF0C37BD46BF
:10019C0080BC70470000002080B584B000AF786050
:1001AC007B685B01264A1344FB60FB68DA68FB68DA
:1001BC009A60FB681A69FB68DA60FB681A68FB686E
:1001CC009B881946104601F099F803461A46FB68BD
:1001DC001A61FB689A68FB68DB689A422BD1FB6852
:1001EC00DA68FB681B699A4225D1FB685A69FB687F
:1001FC001B699A420FD0FB681A69FB685A61FB684D
:10020C001B69002B17D17868FFF7B4FFFB684FF41C
:10021C00FA729A610FE0FB689B695A1EFB689A613F
:10022C00FB689B69002B06DCFB6801225A61FB68AA
:10023C004FF4FA729A6100BF1037BD4680BD00BF03
:10024C000000002080B584B000AF7860604A7B6805
:10025C0052F823205F4B83FB02135911D317CB1A8F
:10026C00642101FB03F3D31A002B27D1584A7B6876
:10027C0052F82330574A82FB03125211DB17D31A60
:10028C00FB607B685800FA68534B83FB0213991090
:10029C00D317C91A0B469B000B445B00D11A00F014
:1002AC0037FA7B685B00581CFB684B4A82FB0312D5
:1002BC009210DB17D31A194600F02AFA474A7B68CA
:1002CC0052F82330013B032B76D801A252F823F0CD
:1002DC00ED020008350300086503000895030008CB
:1002EC00786800F04BFC7B68002B0ED13B4A7B6896
:1002FC00022142F823103A4B1B68642202FB03F3E1
:10030C001946786800F05AFB5DE0344A7B6803219B
:10031C0042F82310334B1B68642202FB03F319468B
:10032C00786800F04BFB4EE0786800F053FC2E4AE6
:10033C007B6852F82330012B40D1284A7B6803217B
:10034C0042F82310274B1B68642202FB03F3194667
:10035C00786800F033FB31E0786800F067FC224AE3
:10036C007B6852F82330012B2AD11C4A7B6804216C
:10037C0042F823101D4B1B68642202FB03F3194641
:10038C00786800F01BFB1BE0786800F07BFC164AD9
:10039C007B6852F82330012B14D1104A7B68022160
:1003AC0042F823100E4B1B68642202FB03F3194620
:1003BC00786800F003FB05E000BF04E000BF02E03A
:1003CC0000BF00E000BF00BF1037BD4680BD00BFBE
:1003DC00D40000201F85EB51676666666000002024
:1003EC006C00002074000020E00000207000002051
:1003FC0080B582B000AF7860002000F0BFFB012018
:10040C0000F0BCFB054A7B6813601921022000F048
:10041C00D5FA00BF0837BD4680BD00BF680000207C
:10042C0080B582B000AF786039607968002000F048
:10043C006FF90021012000F06BF93A680E4B83FB39
:10044C0002139910D317C91A0B469B000B445B007F
:10045C00D11A022000F05CF93B68074A82FB0312B8
:10046C009210DB17D31A1946032000F051F900BF84
:10047C000837BD4680BD00BF6766666680B500AFB5
:10048C00844B1B680B3B032B00F2F98001A252F842
:10049C0023F000BFB1040008DB0400086B05000862
:1004AC00F90500080020FFF7CDFE0120FFF7CAFE7A
:1004BC000020FFF745FE0346012B40F0E280764B0F
:1004CC001B68764A13600C20FFF792FFD9E0734B40
:1004DC001B6819460220FFF7A3FF0020FFF730FE30
:1004EC000346012B06D16E4B1B686C4A13600D2022
:1004FC00FFF77EFF0120FFF723FE0346012B12D1ED
:10050C00664B1B680133654A1360644B1A68654B74
:10051C0083FB02135911D317CB1A642101FB03F38C
:10052C00D31A5E4A13600220FFF70AFE0346012B22
:10053C0003D15A4B1B68584A13605B4B9B68012BC9
:10054C0040F0A1800221594800F007FF10215748C4
:10055C0000F003FF1921022000F030FA93E04F4B1A
:10056C001B6819460320FFF75BFF0020FFF7E8FD2F
:10057C000346012B06D14E4B1B68484A13600E20D4
:10058C00FFF736FF0120FFF7DBFD0346012B12D1ED
:10059C00424B1B680133414A1360404B1A68414B74
:1005AC0083FB02135911D317CB1A642101FB03F3FC
:1005BC00D31A3A4A13600220FFF7C2FD0346012BFF
:1005CC0003D1364B1B68364A1360374B9B68012BA3
:1005DC005BD10421354800F0C0FE2021334800F0E7
:1005EC00BCFE1921022000F0E9F94EE02B4B1B68F0
:1005FC0019460420FFF714FF0020FFF7A1FD034666
:10060C00012B08D12B4B01221A602A4B01225A6074
:10061C000B20FFF7EDFE0120FFF792FD0346012BA7
:10062C0012D11E4B1B6801331C4A13601B4B1A68FA
:10063C001C4B83FB02135911D317CB1A642101FBFA
:10064C0003F3D31A154A13600220FFF779FD034612
:10065C00012B03D1114B1B68154A1360124B9B687D
:10066C00012B14D10821114800F077FE40210F48CE
:10067C0000F073FE1921022000F0A0F907E000BF82
:10068C0006E000BF04E000BF02E000BF00E000BFD6
:10069C0000BF80BD680000206C000020D00000204E
:1006AC00700000201F85EB51E00000200008014085
:1006BC00740000206000002080B582B000AF78602C
:1006CC000B467B807B68082B0ADC0D4A7B6832F872
:1006DC0013307A88D2B219460A4800F026FE0AE096
:1006EC007B68093B084A32F813307A88D2B2194633
:1006FC00064800F01AFE00BF0837BD4680BD00BF9B
:10070C007C0000200008014090000020000C0140FB
:10071C00B0B58EB000AF78603960194B07F10C049E
:10072C001D460FCD0FC40FCD0FC495E8030084E810
:10073C0003003B68002B02DB3B68092B01DD002327
:10074C003B6000237B6313E07B689A007B6BD018C3
:10075C003B689B0007F138021A447B6B13442C3B1B
:10076C001B789BB21946FFF7A7FF7B6B01337B63AA
:10077C007B6B032BE8DD00BF00BF3837BD46B0BD37
:10078C007823000880B500AF00F0CEFA00F014F822
:10079C0000F09AF800F04CF8054801F023FA054BEC
:1007AC0001221A60034B01225A60FFF767FEFCE737
:1007BC00EC0000206000002080B590B000AF07F185
:1007CC00180328220021184601F0BCFD3B1D002215
:1007DC001A605A609A60DA601A610223BB610123C5
:1007EC00BB621023FB6200237B6307F118031846DE
:1007FC0000F0CCFD0346002B01D000F0DAF80F23FB
:10080C007B600023BB600023FB6000233B61002363
:10081C007B613B1D0021184601F038F80346002B84
:10082C0001D000F0C6F800BF4037BD4680BD0000C7
:10083C0080B586B000AF07F1080300221A605A6039
:10084C009A60DA603B4600221A605A601D4B4FF0EA
:10085C0080421A601B4B41F63F725A60194B0022C2
:10086C009A60184B0922DA60164B00221A61154B5C
:10087C0000229A61134801F065F90346002B01D060
:10088C0000F097F84FF48053BB6007F1080319464A
:10089C000C4801F0E3FA0346002B01D000F089F874
:1008AC0000233B6000237B603B461946054801F062
:1008BC00BBFC0346002B01D000F07BF800BF1837BF
:1008CC00BD4680BDEC00002080B586B000AF07F1BE
:1008DC00080300221A605A609A60DA60284B9B6900
:1008EC00274A43F004039361254B9B6903F00403EF
:1008FC007B607B68224B9B69214A43F00803936120
:10090C001F4B9B6903F008033B603B6800224FF6CA
:10091C00FE711C4800F009FD00224FF47E711A484C
:10092C0000F003FD4FF6FE73BB600123FB60002358
:10093C003B6102237B6107F108031946114800F063
:10094C0063FB0723BB600023FB6001233B6107F1C2
:10095C00080319460C4800F057FB4FF47E73BB603C
:10096C000123FB6000233B6102237B6107F1080339
:10097C001946054800F048FB00BF1837BD4680BD3E
:10098C000010024000080140000C014080B582B00C
:10099C0000AF786000F02AF80020FFF7FDFB012083
:1009AC00FFF7FAFB0220FFF7F7FB00BF0837BD4645
:1009BC0080BD80B400AF72B600BFFEE780B483B0D8
:1009CC0000AF7860396007497B683A6841F82320AA
:1009DC00054A7B68002142F8231000BF0C37BD4646
:1009EC0080BC7047D4000020E000002080B400AF31
:1009FC00194B1B68002B0BDD174B1B68013B164A70
:100A0C001360154B1B68002B02DC144B01221A607F
:100A1C00114B5B68002B0BDD0F4B5B68013B0E4AE7
:100A2C0053600D4B5B68002B02DC0C4B01225A60AF
:100A3C00094B9B68002B0BDD074B9B68013B064A5F
:100A4C009360054B9B68002B02DC044B01229A60DF
:100A5C0000BFBD4680BC7047D4000020E0000020E1
:100A6C0080B485B000AF154B9B69144A43F0010369
:100A7C009361124B9B6903F00103BB60BB680F4B86
:100A8C00DB690E4A43F08053D3610C4BDB6903F0F6
:100A9C0080537B607B680A4B5B68FB60FB6823F0D0
:100AAC00E063FB60FB6843F08063FB60044AFB6817
:100ABC00536000BF1437BD4680BC70470010024025
:100ACC000000014080B584B000AF78607B681B6883
:100ADC00B3F1804F13D10C4BDB690B4A43F001038C
:100AEC00D361094BDB6903F00103FB60FB68002257
:100AFC0000211C2000F051FA1C2000F06AFA00BF03
:100B0C001037BD4680BD00BF0010024080B400AF5E
:100B1C00FEE780B400AFFEE780B400AFFEE780B420
:100B2C0000AFFEE780B400AFFEE780B400AF00BFBB
:100B3C00BD4680BC704780B400AF00BFBD4680BCD2
:100B4C00704780B400AF00BFBD4680BC704780B515
:100B5C0000AF00F02FF900BF80BD000080B500AFE2
:100B6C00024801F08BF800BF80BD00BFEC000020F4
:100B7C0080B400AF00BFBD4680BC704780B582B06A
:100B8C0000AF78600F4A7B6832F8133001221946A7
:100B9C000D4800F0CAFB0D4A7B6832F81330012275
:100BAC001946094800F0C1FB094A7B6832F813303A
:100BBC0001221946044800F0B8FB00BF0837BD46B7
:100BCC0080BD00BFA000002000080140A400002050
:100BDC00A800002080B582B000AF78600F4A7B6817
:100BEC0032F81330002219460D4800F09EFB0D4AD6
:100BFC007B6832F8133001221946094800F095FB46
:100C0C00094A7B6832F8133001221946044800F077
:100C1C008CFB00BF0837BD4680BD00BFA000002084
:100C2C0000080140A4000020A800002080B582B07C
:100C3C0000AF78600F4A7B6832F8133001221946F6
:100C4C000D4800F072FB0D4A7B6832F8133000221D
:100C5C001946094800F069FB094A7B6832F81330E1
:100C6C0001221946044800F060FB00BF0837BD465E
:100C7C0080BD00BFA000002000080140A40000209F
:100C8C00A800002080B582B000AF78600F4A7B6866
:100C9C0032F81330012219460D4800F046FB0D4A7C
:100CAC007B6832F8133001221946094800F03DFBED
:100CBC00094A7B6832F8133000221946044800F0C8
:100CCC0034FB00BF0837BD4680BD00BFA00000202C
:100CDC0000080140A4000020A8000020FFF748FFF6
:100CEC000B480C490C4A002302E0D458C45004337E
:100CFC00C4188C42F9D3094A094C002301E0136053
:100D0C000432A242FBD301F0F9FAFFF73BFD704726
:100D1C0000000020B4000020CC230008B400002008
:100D2C0038010020FEE7000080B500AF084B1B68BF
:100D3C00074A43F010031360032000F023F90F203F
:100D4C0000F008F8FFF78CFE0023184680BD00BFAA
:100D5C000020024080B582B000AF7860124B1A6858
:100D6C00124B1B7819464FF47A73B3FBF1F3B2FBB9
:100D7C00F3F3184600F03BF90346002B01D0012396
:100D8C000EE07B680F2B0AD8002279684FF0FF30F9
:100D9C0000F003F9064A7B681360002300E001238E
:100DAC0018460837BD4680BD78000020B0000020F2
:100DBC00AC00002080B400AF054B1B781A46054BE5
:100DCC001B681344034A136000BFBD4680BC7047C8
:100DDC00B00000203401002080B400AF024B1B682F
:100DEC001846BD4680BC70473401002080B485B0E5
:100DFC0000AF78607B6803F00703FB600C4BDB688B
:100E0C00BB60BA684FF6FF031340BB60FB681A0265
:100E1C00BB68134343F0BF6343F40033BB60044A25
:100E2C00BB68D36000BF1437BD4680BC704700BFA1
:100E3C0000ED00E080B400AF044BDB681B0A03F04C
:100E4C0007031846BD4680BC704700BF00ED00E0AC
:100E5C0080B483B000AF0346FB7197F90730002BC9
:100E6C000BDBFB7903F01F02064997F907305B098E
:100E7C00012000FA02F241F8232000BF0C37BD46D6
:100E8C0080BC704700E100E080B483B000AF034643
:100E9C003960FB7197F90730002B0ADB3B68DAB23B
:100EAC000C4997F907301201D2B20B4483F8002396
:100EBC000AE03B68DAB20849FB7903F00F03043B04
:100ECC001201D2B20B441A7600BF0C37BD4680BC5F
:100EDC00704700BF00E100E000ED00E080B489B095
:100EEC0000AFF860B9607A60FB6803F00703FB6140
:100EFC00FB69C3F10703042B28BF0423BB61FB6907
:100F0C000433062B02D9FB69033B00E000237B6111
:100F1C004FF0FF32BB6902FA03F3DA43BB681A40A5
:100F2C007B699A404FF0FF317B6901FA03F3D94397
:100F3C007B680B40134318462437BD4680BC704772
:100F4C0080B582B000AF78607B68013BB3F1807FE5
:100F5C0001D301230FE00A4A7B68013B53600F2148
:100F6C004FF0FF30FFF790FF054B00229A60044BC7
:100F7C0007221A60002318460837BD4680BD00BF03
:100F8C0010E000E080B582B000AF78607868FFF7C1
:100F9C002DFF00BF0837BD4680BD80B586B000AFC1
:100FAC000346B9607A60FB7300237B61FFF742FF55
:100FBC0078617A68B9687869FFF790FF024697F90B
:100FCC000F3011461846FFF75FFF00BF1837BD46BC
:100FDC0080BD80B582B000AF0346FB7197F9073036
:100FEC001846FFF735FF00BF0837BD4680BD80B5FA
:100FFC0082B000AF78607868FFF7A2FF034618460E
:10100C000837BD4680BD000080B48BB000AF78605F
:10101C00396000237B6200233B6248E101227B6A3A
:10102C0002FA03F3FB613B681B68FA691340BB616E
:10103C00BA69FB699A4240F037813B685B68A34A06
:10104C0093425ED0A14A934275D8A14A934258D09C
:10105C009F4A93426FD89F4A934252D09D4A9342E3
:10106C0069D89D4A93424CD09B4A934263D89B4A81
:10107C00934246D0994A93425DD8122B2AD8122B10
:10108C0059D801A252F823F00F110008E9100008FA
:10109C00FB1000083D110008431100084311000823
:1010AC0043110008431100084311000843110008C4
:1010BC0043110008431100084311000843110008B4
:1010CC00431100084311000843110008F1100008F7
:1010DC0005110008824A934213D02CE03B68DB6870
:1010EC003B6229E03B68DB6804333B6224E03B68ED
:1010FC00DB6808333B621FE03B68DB680C333B6208
:10110C001AE03B689B68002B02D104233B6213E07E
:10111C003B689B68012B05D108233B627B68FA690D
:10112C001A6109E008233B627B68FA695A6103E0A3
:10113C0000233B6200E000BFBB69FF2B01D87B683A
:10114C0001E07B6804337B61BB69FF2B02D87B6AAF
:10115C009B0002E07B6A083B9B003B617B691A6841
:10116C000F213B6901FA03F3DB431A40396A3B69EF
:10117C0001FA03F31A437B691A603B685B6803F05E
:10118C008053002B00F09080564B9B69554A43F0DE
:10119C0001039361534B9B6903F00103BB60BB6874
:1011AC00514A7B6A9B08023352F82330FB607B6AFE
:1011BC0003F003039B000F2202FA03F3DB43FA68EC
:1011CC001340FB607B68494A93420DD07B68484AC8
:1011DC00934207D07B68474A934201D1022304E033
:1011EC00032302E0012300E000237A6A02F00302E9
:1011FC0092009340FA681343FB603B497B6A9B085F
:10120C000233FA6841F823203B685B6803F48013CF
:10121C00002B06D0384B9A683749BB6913438B6057
:10122C0006E0354B9A68BB69DB43334913408B604E
:10123C003B685B6803F40013002B06D02E4BDA6876
:10124C002D49BB691343CB6006E02B4BDA68BB69B5
:10125C00DB4329491340CB603B685B6803F40033E4
:10126C00002B06D0244B5A682349BB6913434B60AF
:10127C0006E0214B5A68BB69DB431F4913404B60A6
:10128C003B685B6803F48033002B06D01A4B1A685A
:10129C001949BB6913430B6006E0174B1A68BB690D
:1012AC00DB43154913400B607B6A01337B623B685F
:1012BC001A687B6A22FA03F3002B7FF4AFAE00BFEF
:1012CC0000BF2C37BD4680BC704700BF00003210F9
:1012DC00000031100000221000002110000012103C
:1012EC0000001110001002400000014000080140F5
:1012FC00000C0140001001400004014080B485B096
:10130C0000AF78600B467B807B689A687B881340C3
:10131C00002B02D00123FB7301E00023FB73FB7B4A
:10132C0018461437BD4680BC704780B483B000AFFC
:10133C0078600B467B8013467B707B78002B03D048
:10134C007A887B681A6103E07B881A047B681A61CF
:10135C0000BF0C37BD4680BC704780B485B000AF71
:10136C0078600B467B807B68DB68FB607A88FB6867
:10137C0013401A04FB68D9437B880B401A437B68E3
:10138C001A6100BF1437BD4680BC704780B586B06B
:10139C0000AF78607B68002B01D101236CE27B6885
:1013AC001B6803F00103002B00F08780924B5B68F5
:1013BC0003F00C03042B0CD08F4B5B6803F00C0375
:1013CC00082B12D18C4B5B6803F48033B3F5803F50
:1013DC000BD1894B1B6803F40033002B6CD07B685A
:1013EC005B68002B68D1012346E27B685B68B3F530
:1013FC00803F06D1804B1B687F4A43F480331360D7
:10140C002EE07B685B68002B0CD17B4B1B687A4A07
:10141C0023F480331360784B1B68774A23F48023C2
:10142C0013601DE07B685B68B3F5A02F0CD1724B89
:10143C001B68714A43F4802313606F4B1B686E4A20
:10144C0043F4803313600BE06B4B1B686A4A23F444
:10145C0080331360684B1B68674A23F48023136046
:10146C007B685B68002B13D0FFF7B6FC386108E093
:10147C00FFF7B2FC02463B69D31A642B01D9032354
:10148C00FAE15D4B1B6803F40033002BF0D014E041
:10149C00FFF7A2FC386108E0FFF79EFC02463B69AF
:1014AC00D31A642B01D90323E6E1534B1B6803F4D5
:1014BC000033002BF0D100E000BF7B681B6803F009
:1014CC000203002B63D04C4B5B6803F00C03002B26
:1014DC000BD0494B5B6803F00C03082B1CD1464B1B
:1014EC005B6803F48033002B16D1434B1B6803F06D
:1014FC000203002B05D07B681B69012B01D0012353
:10150C00BAE13D4B1B6823F0F8027B685B69DB009A
:10151C00394913430B603AE07B681B69002B20D0E0
:10152C00364B01221A60FFF757FC386108E0FFF7D1
:10153C0053FC02463B69D31A022B01D903239BE1CE
:10154C002D4B1B6803F00203002BF0D02A4B1B68B9
:10155C0023F0F8027B685B69DB00274913430B60BF
:10156C0015E0264B00221A60FFF736FC386108E0C4
:10157C00FFF732FC02463B69D31A022B01D9032335
:10158C007AE11D4B1B6803F00203002BF0D17B6842
:10159C001B6803F00803002B3AD07B689B69002B77
:1015AC0019D0174B01221A60FFF716FC386108E0BE
:1015BC00FFF712FC02463B69D31A022B01D9032315
:1015CC005AE10D4B5B6A03F00203002BF0D00120B3
:1015DC0000F09AFA1CE00A4B00221A60FFF7FCFBA1
:1015EC0038610FE0FFF7F8FB02463B69D31A022B78
:1015FC0008D9032340E100BF001002400000424222
:10160C00800442429E4B5B6A03F00203002BE9D13B
:10161C007B681B6803F00403002B00F0A6800023FA
:10162C00FB75974BDB6903F08053002B0DD1944B6A
:10163C00DB69934A43F08053D361914BDB6903F030
:10164C008053BB60BB680123FB758E4B1B6803F496
:10165C008073002B18D18B4B1B688A4A43F4807320
:10166C001360FFF7B9FB386108E0FFF7B5FB0246E2
:10167C003B69D31A642B01D90323FDE0814B1B6812
:10168C0003F48073002BF0D07B68DB68012B06D150
:10169C007B4B1B6A7A4A43F0010313622DE07B6893
:1016AC00DB68002B0CD1764B1B6A754A23F00103C7
:1016BC001362734B1B6A724A23F0040313621CE01F
:1016CC007B68DB68052B0CD16D4B1B6A6C4A43F0B5
:1016DC00040313626A4B1B6A694A43F001031362E9
:1016EC000BE0674B1B6A664A23F001031362644BE1
:1016FC001B6A634A23F0040313627B68DB68002BCC
:10170C0015D0FFF769FB38610AE0FFF765FB02466D
:10171C003B69D31A41F28832934201D90323ABE0DF
:10172C00574B1B6A03F00203002BEED014E0FFF7BB
:10173C0053FB38610AE0FFF74FFB02463B69D31AB3
:10174C0041F28832934201D9032395E04C4B1B6A3A
:10175C0003F00203002BEED1FB7D012B05D1484B8E
:10176C00DB69474A23F08053D3617B68DB69002B2C
:10177C0000F08180424B5B6803F00C03082B61D0B6
:10178C007B68DB69022B46D13F4B00221A60FFF7C6
:10179C0023FB386108E0FFF71FFB02463B69D31AB5
:1017AC00022B01D9032367E0354B1B6803F0007350
:1017BC00002BF0D17B681B6AB3F5803F08D1304B0E
:1017CC005B6823F400327B689B682D4913434B60A4
:1017DC002B4B5B6823F474127B68196A7B685B6A19
:1017EC000B43274913434B60274B01221A60FFF729
:1017FC00F3FA386108E0FFF7EFFA02463B69D31AB7
:10180C00022B01D9032337E01D4B1B6803F0007337
:10181C00002BF0D02FE01C4B00221A60FFF7DCFAF3
:10182C00386108E0FFF7D8FA02463B69D31A022B5D
:10183C0001D9032320E0124B1B6803F00073002B2B
:10184C00F0D118E07B68DB69012B01D1012313E097
:10185C000B4B5B68FB60FB6803F480327B681B6A94
:10186C009A4206D1FB6803F470127B685B6A9A4259
:10187C0001D0012300E0002318461837BD4680BD77
:10188C0000100240007000406000424280B584B0FD
:10189C0000AF786039607B68002B01D10123D0E068
:1018AC006A4B1B6803F007033A689A4210D9674BDE
:1018BC001B6823F0070265493B6813430B60634BBD
:1018CC001B6803F007033A689A4201D00123B8E081
:1018DC007B681B6803F00203002B20D07B681B681D
:1018EC0003F00403002B05D0594B5B68584A43F4B2
:1018FC00E06353607B681B6803F00803002B05D082
:10190C00534B5B68524A43F460535360504B5B68D3
:10191C0023F0F0027B689B684D4913434B607B6856
:10192C001B6803F00103002B40D07B685B68012B24
:10193C0007D1474B1B6803F40033002B15D101234F
:10194C007FE07B685B68022B07D1414B1B6803F07F
:10195C000073002B09D1012373E03D4B1B6803F08E
:10196C000203002B01D101236BE0394B5B6823F0A0
:10197C0003027B685B68364913434B60FFF72CFA14
:10198C00F8600AE0FFF728FA0246FB68D31A41F226
:10199C008832934201D9032353E02D4B5B6803F04B
:1019AC000C027B685B689B009A42EBD1274B1B684F
:1019BC0003F007033A689A4210D2244B1B6823F0B9
:1019CC00070222493B6813430B60204B1B6803F052
:1019DC0007033A689A4201D0012332E07B681B6806
:1019EC0003F00403002B08D0194B5B6823F4E0626E
:1019FC007B68DB68164913434B607B681B6803F0FC
:101A0C000803002B09D0124B5B6823F460527B68EF
:101A1C001B69DB000E4913434B6000F021F80246B2
:101A2C000B4B5B681B0903F00F030A49CB5C22FAD2
:101A3C0003F3094A1360094B1B681846FFF78AF930
:101A4C00002318461037BD4680BD00BF0020024061
:101A5C0000100240A023000878000020AC000020F9
:101A6C0080B487B000AF0023FB600023BB60002371
:101A7C007B6100237B6000233B611E4B5B68FB603A
:101A8C00FB6803F00C03042B02D0082B03D027E0D7
:101A9C00194B3B6127E0FB689B0C03F00F03174AC3
:101AAC00D35C7B60FB6803F48033002B10D0114BAC
:101ABC005B685B0C03F00103114AD35CBB607B6871
:101ACC000D4A02FB03F2BB68B2FBF3F37B6104E04B
:101ADC007B680C4A02FB03F37B617B693B6102E090
:101AEC00054B3B6100BF3B6918461C37BD4680BCAB
:101AFC00704700BF0010024000127A00B0230008AB
:101B0C00C023000800093D0080B485B000AF7860A8
:101B1C000A4B1B680A4AA2FB03235B0A7A6802FB86
:101B2C0003F3FB6000BFFB685A1EFA60002BF9D16F
:101B3C0000BF00BF1437BD4680BC70477800002042
:101B4C00D34D621080B582B000AF78607B68002BFB
:101B5C0001D1012341E07B6893F83D30DBB2002BCF
:101B6C0006D17B68002283F83C207868FEF7AAFF38
:101B7C007B68022283F83D207B681A687B680433FB
:101B8C001946104600F056FA7B68012283F846206D
:101B9C007B68012283F83E207B68012283F83F207A
:101BAC007B68012283F840207B68012283F8412066
:101BBC007B68012283F842207B68012283F8432052
:101BCC007B68012283F844207B68012283F845203E
:101BDC007B68012283F83D20002318460837BD4658
:101BEC0080BD000080B485B000AF78607B6893F84E
:101BFC003D30DBB2012B01D0012335E07B680222A2
:101C0C0083F83D207B681B68DA687B681B6842F0B0
:101C1C000102DA607B681B68164A934209D07B6824
:101C2C001B68B3F1804F04D07B681B68124A934247
:101C3C0011D17B681B689B6803F00703FB60FB6892
:101C4C00062B10D07B681B681A687B681B6842F0F7
:101C5C0001021A6007E07B681B681A687B681B68C6
:101C6C0042F001021A60002318461437BD4680BCAE
:101C7C00704700BF002C01400004004080B584B0C8
:101C8C0000AF78607B681B68DB68FB607B681B6857
:101C9C001B69BB60BB6803F00203002B20D0FB6800
:101CAC0003F00203002B1BD07B681B686FF0020251
:101CBC001A617B6801221A777B681B689B6903F0A9
:101CCC000303002B03D0786800F098F905E07868DE
:101CDC0000F08BF9786800F09AF97B6800221A778B
:101CEC00BB6803F00403002B20D0FB6803F0040353
:101CFC00002B1BD07B681B686FF004021A617B6899
:101D0C0002221A777B681B689B6903F44073002BD3
:101D1C0003D0786800F072F905E0786800F065F996
:101D2C00786800F074F97B6800221A77BB6803F0BE
:101D3C000803002B20D0FB6803F00803002B1BD0FA
:101D4C007B681B686FF008021A617B6804221A77A3
:101D5C007B681B68DB6903F00303002B03D07868F6
:101D6C0000F04CF905E0786800F03FF9786800F075
:101D7C004EF97B6800221A77BB6803F01003002B26
:101D8C0020D0FB6803F01003002B1BD07B681B6872
:101D9C006FF010021A617B6808221A777B681B6847
:101DAC00DB6903F44073002B03D0786800F026F94C
:101DBC0005E0786800F019F9786800F028F97B687C
:101DCC0000221A77BB6803F00103002B0CD0FB68D0
:101DDC0003F00103002B07D07B681B686FF0010236
:101DEC001A617868FEF7D2FDBB6803F08003002B04
:101DFC000CD0FB6803F08003002B07D07B681B68BA
:101E0C006FF080021A61786800F06FFABB6803F01B
:101E1C004003002B0CD0FB6803F04003002B07D0D1
:101E2C007B681B686FF040021A61786800F0F8F864
:101E3C00BB6803F02003002B0CD0FB6803F02003DD
:101E4C00002B07D07B681B686FF020021A61786842
:101E5C0000F042FA00BF1037BD4680BD80B584B09B
:101E6C0000AF786039600023FB737B6893F83C30DB
:101E7C00012B01D10223B4E07B68012283F83C20C2
:101E8C007B68022283F83D207B681B689B68BB60E3
:101E9C00BB6823F07703BB60BB6823F47F43BB6054
:101EAC007B681B68BA689A603B681B68B3F5005F77
:101EBC003ED0B3F5005F00F28780B3F5805F00F091
:101ECC008680B3F5805F7FD8702B1AD0702B7BD8AF
:101EDC00602B50D0602B77D8502B3CD0502B73D824
:101EEC00402B58D0402B6FD8302B64D0302B6BD874
:101EFC00202B60D0202B67D8002B5CD0102B5AD015
:101F0C0062E07B6818683B6899683B685A683B6874
:101F1C00DB6800F06AF97B681B689B68BB60BB6878
:101F2C0043F07703BB607B681B68BA689A604FE02C
:101F3C007B6818683B6899683B685A683B68DB6843
:101F4C0000F053F97B681B689A687B681B6842F445
:101F5C0080429A603CE07B6818683B6859683B6833
:101F6C00DB681A4600F0CAF87B681B6850211846DB
:101F7C0000F021F92CE07B6818683B6859683B68D5
:101F8C00DB681A4600F0E8F87B681B68602118468D
:101F9C0000F011F91CE07B6818683B6859683B68D5
:101FAC00DB681A4600F0AAF87B681B6840211846CB
:101FBC0000F001F90CE07B681A683B681B68194655
:101FCC00104600F0F8F803E00123FB7300E000BFBB
:101FDC007B68012283F83D207B68002283F83C203B
:101FEC00FB7B18461037BD4680BD80B483B000AF74
:101FFC00786000BF0C37BD4680BC704780B483B09E
:10200C0000AF786000BF0C37BD4680BC704780B411
:10201C0083B000AF786000BF0C37BD4680BC704702
:10202C0080B483B000AF786000BF0C37BD4680BC75
:10203C007047000080B485B000AF786039607B6871
:10204C001B68FB607B682B4A934207D07B68B3F11B
:10205C00804F03D07B68284A934208D1FB6823F059
:10206C007003FB603B685B68FA681343FB607B683A
:10207C00204A934207D07B68B3F1804F03D07B6832
:10208C001D4A934208D1FB6823F44073FB603B6804
:10209C00DB68FA681343FB60FB6823F080023B6843
:1020AC005B691343FB607B68FA681A603B689A684B
:1020BC007B68DA623B681A687B689A627B680D4AB7
:1020CC00934203D13B681A697B681A637B680122CF
:1020DC005A617B681B6903F00103002B05D07B68F8
:1020EC001B6923F001027B681A6100BF1437BD46DF
:1020FC0080BC7047002C01400004004080B487B0C5
:10210C0000AFF860B9607A60FB681B6A7B61FB68A2
:10211C001B6A23F00102FB681A62FB689B693B6136
:10212C003B6923F0F0033B617B681B013A69134365
:10213C003B617B6923F00A037B617A69BB681343BB
:10214C007B61FB683A699A61FB687A691A6200BF25
:10215C001C37BD4680BC704780B487B000AFF860B8
:10216C00B9607A60FB681B6A7B61FB681B6A23F0B1
:10217C001002FB681A62FB689B693B613B6923F4A4
:10218C0070433B617B681B033A6913433B617B697A
:10219C0023F0A0037B61BB681B017A6913437B614D
:1021AC00FB683A699A61FB687A691A6200BF1C374E
:1021BC00BD4680BC704780B485B000AF7860396094
:1021CC007B689B68FB60FB6823F07003FB603A68DC
:1021DC00FB68134343F00703FB607B68FA689A6063
:1021EC0000BF1437BD4680BC704780B487B000AFC9
:1021FC00F860B9607A603B60FB689B687B617B69C7
:10220C0023F47F437B613B681A027B681A43BB68EB
:10221C0013437A6913437B61FB687A699A6000BF48
:10222C001C37BD4680BC704780B485B000AF786069
:10223C0039607B6893F83C30012B01D1022341E0DB
:10224C007B68012283F83C207B68022283F83D20C6
:10225C007B681B685B68FB607B681B689B68BB606A
:10226C00FB6823F07003FB603B681B68FA68134340
:10227C00FB607B681B68FA685A607B681B68144AB1
:10228C00934209D07B681B68B3F1804F04D07B6804
:10229C001B68104A93420CD1BB6823F08003BB60CF
:1022AC003B685B68BA681343BB607B681B68BA68A1
:1022BC009A607B68012283F83D207B68002283F8BA
:1022CC003C20002318461437BD4680BC704700BF25
:1022DC00002C01400004004080B483B000AF786053
:1022EC0000BF0C37BD4680BC704780B483B000AFD4
:1022FC00786000BF0C37BD4680BC704770B50026B7
:10230C000C4D0D4C641BA410A64209D100F022F810
:10231C0000260A4D0A4C641BA410A64205D170BDC0
:10232C0055F8043B98470136EEE755F8043B9847BF
:10233C000136F2E7C4230008C4230008C4230008B4
:10234C00C823000803460244934200D1704703F8A7
:10235C00011BF9E7F8B500BFF8BC08BC9E467047F6
:0C236C00F8B500BFF8BC08BC9E467047E6
:102378000000000001000000000100000101000051
:10238800000001000100010000010100010101003D
:102398000000000101000001000000000000000032
:1023A80001020304060708090203040506070809D1
:0C23B8000A0B0C0D0E0F101001020000AB
:0423C40031010008DB
:0423C8000D010008FB
:1023CC00000C0140010000000100000001000000B1
:1023DC000100000001000000F401000000000000FA
:1023EC00000C014002000000010000000100000090
:1023FC000100000001000000F401000000000000DA
:10240C00000C01400400000001000000010000006D
:10241C000100000001000000F401000000000000B9
:10242C0001000000010000000B000000050000008E
:10243C00020000000300000000127A00800000017E
:10244C000002000400080010002000400080000082
:10245C000800100020004000800000010002000075
:10246C0002001000080040000400200010000000D2
:04247C00010000005B
:0400000508000CE9FA
:00000001FF
