:020000040800F2
:10000000002800201D110008AD100008B3100008E2
:10001000B9100008BF100008C5100008000000005B
:10002000000000000000000000000000CB100008ED
:10003000D710000800000000E3100008EF100008CF
:1000400065110008651100086511000865110008B8
:1000500065110008651100086511000865110008A8
:100060006511000865110008651100086511000898
:100070006511000865110008651100086511000888
:100080006511000865110008651100086511000878
:100090006511000865110008651100086511000868
:1000A0006511000865110008651100086511000858
:1000B000FD1000086511000800000000651100082F
:1000C0006511000800000000000000006511000834
:1000D0000000000065110008651100080000000024
:1000E0006511000865110008651100080000000096
:1000F0000000000000000000000000000000000000
:0C01000000000000000000005FF808F1A3
:10010C0010B5054C237833B9044B13B10448AFF345
:10011C0000800123237010BD480000200000000067
:10012C009427000808B5034B1BB103490348AFF3F0
:10013C00008008BD000000004C000020942700083F
:10014C00B0B497B000AF786039607B68002B01DAEF
:10015C0000237B607B68092B01DD09237B603B68F6
:10016C00002B01DA00233B603B68092B01DD0923DE
:10017C003B60174B07F130041D460FCD0FC40FCD5C
:10018C000FC495E8030084E80300124B07F1080440
:10019C001D460FCD0FC40FCD0FC495E8030084E8A6
:1001AC0003007B689B0007F15802134453F8282C7A
:1001BC003B689B0007F158010B4453F8503C06492F
:1001CC001343CB6000BF5C37BD46B0BC704700BF6B
:1001DC00AC270008D4270008000C014080B500AF04
:1001EC004B4B1B684B4A126811461846FFF7A8FF89
:1001FC00494B1B68012B40F08880454B1B68013B29
:10020C00434A1360434B1B68013B424A1360404B0B
:10021C001B68002B37DA414B01221A60404B1B68DC
:10022C00022B22D0022B2FDC002B02D0012B0ED064
:10023C002AE03B4B02221A603A4B9B683A4A82FBFB
:10024C0003129211DB17D31A314A13601CE0344BA2
:10025C0000221A60334B1B68334A82FB0312921143
:10026C00DB17D31A2A4A13600EE02D4B01221A60B9
:10027C002C4B5B682C4A82FB03129211DB17D31AAE
:10028C00234A136000E000BF224B1B68002B37DAB7
:10029C00264B01221A60264B1B68022B22D0022B04
:1002AC002FDC002B02D0012B0ED02AE0204B022297
:1002BC001A601C4B9B681C4A82FB03129211DB17C1
:1002CC00D31A144A13601CE0194B00221A60154B08
:1002DC001B68154A82FB03129211DB17D31A0D4AC5
:1002EC0013600EE0124B01221A600E4B5B680E4A33
:1002FC0082FB03129211DB17D31A064A136000E03B
:10030C0000BF4FF47A7000F0F1FD00BF80BD00BF5C
:10031C000000002004000020D00000206800002015
:10032C006400002028000020D34D62106C000020D7
:10033C000800002080B500AF294B1B68032B11D09F
:10034C00274B1B68962B0DD0254B1B68FA2B09D01D
:10035C00234B1B68B3F5AF7F04D0214B1B68B3F55F
:10036C00E17F02D1FFF73AFF38E01E4B1B68012BEF
:10037C0003D11B4B03221A6019E01A4B1B68022B8A
:10038C0004D1194B1B68194A136010E0154B1B68FC
:10039C00032B04D1144B5B68144A136007E0114B18
:1003AC001B68042B03D1104B9B68104A13600D4B38
:1003BC001B680F4A13600D4B1B680E4A82FB03121D
:1003CC009211DB17D31A0C4A1360094B1B680A4AAB
:1003DC00126811461846FFF7B3FE00BF00BF80BD80
:1003EC00340000200C0000201C000020D80000204D
:1003FC00DC000020D34D6210D400002080B483B008
:10040C0000AF7860044A7B68012142F8231000BFDA
:10041C000C37BD4680BC70477000002080B483B0A0
:10042C0000AF7860094A7B6852F82330002B06D065
:10043C00064A7B68002142F82310012300E00023C8
:10044C0018460C37BD4680BC704700BF70000020BA
:10045C0080B582B000AF00237B608EE04B4A7B6896
:10046C0052F823204A497B6841F82320494A7B688B
:10047C0052F8232045497B6841F823207B68002BE8
:10048C000AD14FF40051444801F052F90346194681
:10049C00404A7B6842F823107B68012B0AD14FF449
:1004AC0080413D4801F044F903461946394A7B68BE
:1004BC0042F823107B68022B0AD14FF400413648D6
:1004CC0001F036F903461946324A7B6842F823108C
:1004DC002F4A7B6852F823202C497B6851F8233033
:1004EC009A4247D1294A7B6852F8232029497B68D4
:1004FC0051F823309A423DD1284A7B6852F8232088
:10050C0024497B6851F823309A4216D0214A7B68E3
:10051C0052F8232021497B6841F823201D4A7B682F
:10052C0052F82330012B25D17868FFF767FF1C4A5E
:10053C007B68C82142F823101CE0194A7B6852F8EA
:10054C0023305A1E16497B6841F82320144A7B68D5
:10055C0052F82330002B0DD10E4A7B6852F8233011
:10056C00012B02D17868FFF749FF0D4A7B68C8213F
:10057C0042F823107B6801337B607B68022B7FF78A
:10058C006DAF00BF00BF0837BD4680BD880000209E
:10059C007C0000209400002000100140A0000020EE
:1005AC001000002080B500AF012202210E4801F09E
:1005BC00D6F8002204210C4801F0D1F800220821C1
:1005CC00094801F0CCF800221021074801F0C7F8C7
:1005DC0000222021044801F0C2F8012240210248E7
:1005EC0001F0BDF800BF80BD0008014080B500AF30
:1005FC00012202210E4801F0B2F8002204210C481D
:10060C0001F0ADF800220821094801F0A8F80022F9
:10061C001021074801F0A3F801222021044801F021
:10062C009EF800224021024801F099F800BF80BDDD
:10063C000008014080B500AF002202210E4801F0F5
:10064C008EF8002204210C4801F089F801220821BF
:10065C00094801F084F801221021074801F07FF8C5
:10066C0000222021044801F07AF80022402102489F
:10067C0001F075F800BF80BD0008014080B500AFE7
:10068C00002202210E4801F06AF8012204210C48D4
:10069C0001F065F800220821094801F060F80122F8
:1006AC001021074801F05BF800222021044801F0DA
:1006BC0056F800224021024801F051F800BF80BDDD
:1006CC000008014080B500AF002202210E4801F065
:1006DC0046F8002204210C4801F041F800220821C0
:1006EC00094801F03CF800221021074801F037F8C6
:1006FC0000222021044801F032F800224021024857
:10070C0001F02DF800BF80BD0008014080B582B01B
:10071C0000AF78607B68002B4BD19B4B1B6801337F
:10072C00994A1360984B1B68012B03D0964B1B689E
:10073C00042B2ADD944B01221A60944B03221A607D
:10074C00934B1B68934A82FB03129211DB17D31A4B
:10075C00914A13608E4B9B688E4A82FB0312921156
:10076C00DB17D31A8D4A13608D4B00221A608D4B08
:10077C0002221A608C4B00221A608C4B00221A60E9
:10078C004FF47A7000F0B2FBFAE07F4B1B68022B3F
:10079C0008D07D4B1B68032B04D07B4B1B68042BB0
:1007AC0040F0EE804FF4FA7000F086FBFFF78AFF02
:1007BC00E6E07B68012B3FD1734B1B68022B10D1F9
:1007CC007B4B1B6803F57A73794A1360784B1B6873
:1007DC0042F22832934240F3D380754B00221A60C8
:1007EC00CEE0694B1B68032B10D1714B5B6803F592
:1007FC007A736F4A53606E4B5B6842F228329342B5
:10080C0040F3BE806A4B00225A60B9E05E4B1B6815
:10081C00042B40F0B580664B9B6803F57A73644AF1
:10082C009360634B9B6842F22832934240F3A8805A
:10083C005F4B00229A60A3E07B68022B40F0A08003
:10084C00514B1B68022B1CD14F4B01221A60584B89
:10085C001A68574B5B68D31AB3F57A7F52DD544B49
:10086C001B684B4A13604A4B1A68494B5B68D31A96
:10087C00A3F57A73464A9360454B9B684C4A936048
:10088C0040E0414B1B68032B1CD13F4B01221A60EB
:10089C00474B5A68464B9B681344B3F5FA5F31DCFF
:1008AC00434B5B683A4A5360394B5A68384B9B68E8
:1008BC00134403F57A73364A1360354B1B683C4A74
:1008CC0013601FE0304B1B68042B1BD12E4B0122F5
:1008DC001A60374B5A68364B9B681344B3F5FA5F72
:1008EC0010DC334B9B682A4A9360294B5A68284B7F
:1008FC009B68134403F57A73254A1360244B1B68D9
:10090C002B4A1360012280212A4800F028FF002284
:10091C004FF48071274800F022FF00224FF4007141
:10092C00244800F01CFF00224FF48061214800F0A5
:10093C0016FF164B03221A60154B1B68154A82FBD7
:10094C0003129211DB17D31A134A1360104B9B68D6
:10095C00104A82FB03129211DB17D31A0F4A136051
:10096C000F4B00221A600F4B02221A600E4B002212
:10097C001A600E4B00221A604FF47A7000F0B6FA2F
:10098C0000BF0837BD4680BD0C000020340000209D
:10099C0028000020D34D621000000020040000202D
:1009AC006400002008000020680000206C0000207B
:1009BC001C0000200008014080B500AFA74B1B684D
:1009CC00B3F5E17F00F08680B3F5E17F00F343815E
:1009DC00B3F5AF7F63D0B3F5AF7F00F33C81B3F5D4
:1009EC00967F00F0FB80B3F5967F00F33481FA2BF1
:1009FC0032D0FA2B00F32F81C82B00F0BC80C82B0F
:100A0C0000F32981962B0DD0962B00F32481032B18
:100A1C0002D0642B7DD01EE1FFF7C4FD8F4B9622D4
:100A2C001A6018E1FFF7BEFD0020FFF7F7FC034644
:100A3C00002B05D00020FFF769FE884B64221A605A
:100A4C00874B1B68012B40F0FB80854B00221A6002
:100A5C00824BFA221A60F3E0FFF7C8FD0020FFF783
:100A6C00DDFC0346002B05D00020FFF74FFE7B4B2F
:100A7C0064221A607B4B1B68012B40F0E380784B9F
:100A8C001B68012B40F0DE80764B00221A60744B01
:100A9C0000221A60714B4FF4AF721A60D2E0FFF76C
:100AAC00C9FD0020FFF7BAFC0346002B05D000203F
:100ABC00FFF72CFE694B64221A606A4B1B68012BF2
:100ACC0040F0C280674B00221A60644B4FF4E17215
:100ADC001A60B9E0FFF7D2FD0020FFF79FFC034638
:100AEC00002B02D05D4B64221A605E4B1B68012BFD
:100AFC0040F0AC805A4B1B68012B40F0A780594B3F
:100B0C0000221A60564B00221A60544B96221A602F
:100B1C009CE0554B1B68012B0BD10221534800F074
:100B2C0036FE1021514800F032FE4FF4FA7000F0FE
:100B3C00C3F90020FFF772FC0346002B05D0002000
:100B4C00FFF7E4FD454BC8221A600120FFF766FC55
:100B5C000346002B02D00120FFF7D8FD0220FFF73F
:100B6C005DFC0346002B73D00220FFF7CFFD3B4BFF
:100B7C0096221A606CE03C4B1B68012B0BD10421B4
:100B8C003A4800F004FE2021384800F000FE4FF4F3
:100B9C00FA7000F091F90020FFF740FC0346002B9F
:100BAC0006D00020FFF7B2FD2C4B4FF496721A6062
:100BBC000120FFF733FC0346002B02D00120FFF786
:100BCC00A5FD0220FFF72AFC0346002B42D0022091
:100BDC00FFF79CFD214B96221A603BE0224B1B68D1
:100BEC00012B0BD10821214800F0D1FD40211F48D9
:100BFC0000F0CDFD4FF4FA7000F05EF90020FFF725
:100C0C000DFC0346002B05D00020FFF77FFD134B96
:100C1C0096221A600120FFF701FC0346002B02D03C
:100C2C000120FFF773FD0220FFF7F8FB0346002BB2
:100C3C0011D00220FFF76AFD084B96221A600AE0D9
:100C4C0000BF08E000BF06E000BF04E000BF02E008
:100C5C0000BF00E000BF00BF80BD00BF340000201B
:100C6C006C00002068000020C0000020000801403B
:100C7C0080B500AF00F072FA00F012F800F098F8AE
:100C8C0000F04AF8054801F0C7F94FF47A7000F00B
:100C9C002DF9FFF791FEFFF74DFBFAE7E00000207E
:100CAC0080B590B000AF07F1180328220021184638
:100CBC0001F062FD3B1D00221A605A609A60DA60F6
:100CCC001A610223BB610123BB621023FB62002368
:100CDC007B6307F11803184600F072FD0346002BE6
:100CEC0001D000F0E3F80F237B600023BB600023EE
:100CFC00FB6000233B6100237B613B1D00211846F8
:100D0C0000F0DEFF0346002B01D000F0CFF800BF4F
:100D1C004037BD4680BD000080B586B000AF07F1FE
:100D2C00080300221A605A609A60DA603B4600227F
:100D3C001A605A601D4B4FF080421A601B4B41F6F3
:100D4C003F725A60194B00229A60184B0922DA60E4
:100D5C00164B00221A61154B00229A61134801F0C0
:100D6C000BF90346002B01D000F0A0F84FF4805390
:100D7C00BB6007F1080319460C4801F089FA0346D9
:100D8C00002B01D000F092F800233B6000237B6025
:100D9C003B461946054801F061FC0346002B01D087
:100DAC0000F084F800BF1837BD4680BDE00000207D
:100DBC0080B588B000AF07F1100300221A605A60AA
:100DCC009A60DA602F4B9B692E4A43F010039361B3
:100DDC002C4B9B6903F01003FB60FB68294B9B6950
:100DEC00284A43F004039361264B9B6903F00403E8
:100DFC00BB60BB68234B9B69224A43F00803936199
:100E0C00204B9B6903F008037B607B68002241F652
:100E1C00FF711D4800F0A3FC002243F6FF711B4834
:100E2C0000F09DFC4FF460433B6100237B61002389
:100E3C00BB6107F110031946154800F0FFFA41F6A3
:100E4C00FF733B6101237B610023BB610223FB61C8
:100E5C0007F1100319460C4800F0F0FA43F6FF7343
:100E6C003B6101237B610023BB610223FB6107F122
:100E7C0010031946054800F0E1FA00BF2037BD46C3
:100E8C0080BD00BF0010024000080140000C014072
:100E9C000010014080B582B000AF786000F040F8DF
:100EAC00FFF7D6FA00BF0837BD4680BD80B400AF4F
:100EBC0072B600BFFEE7000080B483B000AF78606C
:100ECC00074B1B687A6892FBF3F3064A1360064BD8
:100EDC0000221A6000BF0C37BD4680BC704700BFB3
:100EEC0038000020BC000020C000002080B483B07B
:100EFC0000AF7860074B1B687A6892FBF3F3064AE5
:100F0C001360064B00221A6000BF0C37BD4680BC34
:100F1C00704700BF38000020CC000020D00000201B
:100F2C0080B400AF294B1B68002B0BDD274B1B68D3
:100F3C00013B264A1360254B1B68002B02DC244B1B
:100F4C0001221A60234B1B68002B0BDD214B1B6805
:100F5C00013B204A13601F4B1B68002B02DC1E4B0D
:100F6C0001221A601D4B1B68002B0BDD1B4B1B68F1
:100F7C00013B1A4A1360194B1B68002B02DC184BFF
:100F8C0001221A60174B1B68002B0BDD154B1B68DD
:100F9C00013B144A1360134B1B68002B02DC124BF1
:100FAC0001221A60114B1B68002B0BDD0F4B1B68C9
:100FBC00013B0E4A13600D4B1B68002B02DC0C4BE3
:100FCC0001221A6000BFBD4680BC7047AC000020F7
:100FDC00B0000020B4000020B8000020BC000020AD
:100FEC00C0000020C4000020C8000020CC0000205D
:100FFC00D000002080B485B000AF154B9B69144A1B
:10100C0043F001039361124B9B6903F00103BB6036
:10101C00BB680F4BDB690E4A43F08053D3610C4B1A
:10102C00DB6903F080537B607B680A4B5B68FB6079
:10103C00FB6823F0E063FB60FB6843F08063FB60BC
:10104C00044AFB68536000BF1437BD4680BC704730
:10105C00001002400000014080B584B000AF786001
:10106C007B681B68B3F1804F13D10C4BDB690B4AC7
:10107C0043F00103D361094BDB6903F00103FB600F
:10108C00FB68002200211C2000F0A1F91C2000F0BC
:10109C00BAF900BF1037BD4680BD00BF001002403A
:1010AC0080B400AFFEE780B400AFFEE780B400AFC1
:1010BC00FEE780B400AFFEE780B400AFFEE780B47B
:1010CC0000AF00BFBD4680BC704780B400AF00BF0E
:1010DC00BD4680BC704780B400AF00BFBD4680BC2D
:1010EC00704780B500AF00F07FF800BF80BD0000F6
:1010FC0080B500AF024800F0DBFF00BF80BD00BF31
:10110C00E000002080B400AF00BFBD4680BC70473B
:10111C00FFF7F8FF0B480C490C4A002302E0D458A7
:10112C00C4500433C4188C42F9D3094A094C002327
:10113C0001E013600432A242FBD301F0F9FAFFF78D
:10114C0097FD704700000020480000202828000868
:10115C00480000202C010020FEE7000080B500AF05
:10116C00084B1B68074A43F010031360032000F080
:10117C0023F90F2000F008F8FFF73CFF0023184676
:10118C0080BD00BF0020024080B582B000AF786007
:10119C00124B1A68124B1B7819464FF47A73B3FB37
:1011AC00F1F3B2FBF3F3184600F03BF90346002BC6
:1011BC0001D001230EE07B680F2B0AD8002279683E
:1011CC004FF0FF3000F003F9064A7B6813600023F0
:1011DC0000E0012318460837BD4680BD3C000020C6
:1011EC00440000204000002080B400AF054B1B7869
:1011FC001A46054B1B681344034A136000BFBD46D7
:10120C0080BC7047440000202801002080B400AF4F
:10121C00024B1B681846BD4680BC70472801002055
:10122C0080B485B000AF78607B6803F00703FB6087
:10123C000C4BDB68BB60BA684FF6FF031340BB6016
:10124C00FB681A02BB68134343F0BF6343F40033DB
:10125C00BB60044ABB68D36000BF1437BD4680BC7A
:10126C00704700BF00ED00E080B400AF044BDB68BA
:10127C001B0A03F007031846BD4680BC704700BF2D
:10128C0000ED00E080B483B000AF0346FB7197F92A
:10129C000730002B0BDBFB7903F01F02064997F993
:1012AC0007305B09012000FA02F241F8232000BF4D
:1012BC000C37BD4680BC704700E100E080B483B0C1
:1012CC0000AF03463960FB7197F90730002B0ADB3E
:1012DC003B68DAB20C4997F907301201D2B20B44D1
:1012EC0083F800230AE03B68DAB20849FB7903F083
:1012FC000F03043B1201D2B20B441A7600BF0C3719
:10130C00BD4680BC704700BF00E100E000ED00E08E
:10131C0080B489B000AFF860B9607A60FB6803F004
:10132C000703FB61FB69C3F10703042B28BF0423EC
:10133C00BB61FB690433062B02D9FB69033B00E05C
:10134C0000237B614FF0FF32BB6902FA03F3DA43EF
:10135C00BB681A407B699A404FF0FF317B6901FAF8
:10136C0003F3D9437B680B40134318462437BD461F
:10137C0080BC704780B582B000AF78607B68013B61
:10138C00B3F1807F01D301230FE00A4A7B68013B54
:10139C0053600F214FF0FF30FFF790FF054B0022F9
:1013AC009A60044B07221A60002318460837BD4682
:1013BC0080BD00BF10E000E080B582B000AF786067
:1013CC007868FFF72DFF00BF0837BD4680BD80B59C
:1013DC0086B000AF0346B9607A60FB7300237B6173
:1013EC00FFF742FF78617A68B9687869FFF790FF78
:1013FC00024697F90F3011461846FFF75FFF00BF02
:10140C001837BD4680BD80B582B000AF0346FB7176
:10141C0097F907301846FFF735FF00BF0837BD4670
:10142C0080BD80B582B000AF78607868FFF7A2FF0E
:10143C00034618460837BD4680BD000080B48BB00B
:10144C0000AF7860396000237B6200233B6248E187
:10145C0001227B6A02FA03F3FB613B681B68FA69A1
:10146C001340BB61BA69FB699A4240F037813B6813
:10147C005B68A34A93425ED0A14A934275D8A14AB5
:10148C00934258D09F4A93426FD89F4A934252D06E
:10149C009D4A934269D89D4A93424CD09B4A9342B1
:1014AC0063D89B4A934246D0994A93425DD8122BFB
:1014BC002AD8122B59D801A252F823F04315000850
:1014CC001D1500082F150008711500087715000868
:1014DC0077150008771500087715000877150008B0
:1014EC0077150008771500087715000877150008A0
:1014FC007715000877150008771500087715000890
:10150C002515000839150008824A934213D02CE0A7
:10151C003B68DB683B6229E03B68DB6804333B6279
:10152C0024E03B68DB6808333B621FE03B68DB6808
:10153C000C333B621AE03B689B68002B02D10423FE
:10154C003B6213E03B689B68012B05D108233B628F
:10155C007B68FA691A6109E008233B627B68FA69C7
:10156C005A6103E000233B6200E000BFBB69FF2B24
:10157C0001D87B6801E07B6804337B61BB69FF2B7E
:10158C0002D87B6A9B0002E07B6A083B9B003B61B4
:10159C007B691A680F213B6901FA03F3DB431A409C
:1015AC00396A3B6901FA03F31A437B691A603B6899
:1015BC005B6803F08053002B00F09080564B9B69C6
:1015CC00554A43F001039361534B9B6903F00103AC
:1015DC00BB60BB68514A7B6A9B08023352F82330CC
:1015EC00FB607B6A03F003039B000F2202FA03F3F8
:1015FC00DB43FA681340FB607B68494A93420DD089
:10160C007B68484A934207D07B68474A934201D192
:10161C00022304E0032302E0012300E000237A6AA2
:10162C0002F0030292009340FA681343FB603B49BB
:10163C007B6A9B080233FA6841F823203B685B689D
:10164C0003F48013002B06D0384B9A683749BB69DA
:10165C0013438B6006E0354B9A68BB69DB43334917
:10166C0013408B603B685B6803F40013002B06D0BF
:10167C002E4BDA682D49BB691343CB6006E02B4B2C
:10168C00DA68BB69DB4329491340CB603B685B6874
:10169C0003F40033002B06D0244B5A682349BB6952
:1016AC0013434B6006E0214B5A68BB69DB431F496F
:1016BC0013404B603B685B6803F48033002B06D00F
:1016CC001A4B1A681949BB6913430B6006E0174B98
:1016DC001A68BB69DB43154913400B607B6A013305
:1016EC007B623B681A687B6A22FA03F3002B7FF457
:1016FC00AFAE00BF00BF2C37BD4680BC704700BFEB
:10170C0000003210000031100000221000002110E7
:10171C0000001210000011100010024000000140E7
:10172C0000080140000C0140001001400004014081
:10173C0080B485B000AF78600B467B807B689A687C
:10174C007B881340002B02D00123FB7301E00023A4
:10175C00FB73FB7B18461437BD4680BC704780B4C6
:10176C0083B000AF78600B467B8013467B707B7830
:10177C00002B03D07A887B681A6103E07B881A04FB
:10178C007B681A6100BF0C37BD4680BC704780B4C3
:10179C0085B000AF78600B467B807B68DB68FB60B4
:1017AC007A88FB6813401A04FB68D9437B880B408A
:1017BC001A437B681A6100BF1437BD4680BC704762
:1017CC0080B586B000AF78607B68002B01D1012317
:1017DC006CE27B681B6803F00103002B00F0878030
:1017EC00924B5B6803F00C03042B0CD08F4B5B68A3
:1017FC0003F00C03082B12D18C4B5B6803F4803381
:10180C00B3F5803F0BD1894B1B6803F40033002BDD
:10181C006CD07B685B68002B68D1012346E27B6847
:10182C005B68B3F5803F06D1804B1B687F4A43F45D
:10183C00803313602EE07B685B68002B0CD17B4BF4
:10184C001B687A4A23F480331360784B1B68774A01
:10185C0023F4802313601DE07B685B68B3F5A02F35
:10186C000CD1724B1B68714A43F4802313606F4B8D
:10187C001B686E4A43F4803313600BE06B4B1B68A0
:10188C006A4A23F480331360684B1B68674A23F45D
:10189C00802313607B685B68002B13D0FFF7B6FCCA
:1018AC00386108E0FFF7B2FC02463B69D31A642B9F
:1018BC0001D90323FAE15D4B1B6803F40033002BC1
:1018CC00F0D014E0FFF7A2FC386108E0FFF79EFCB3
:1018DC0002463B69D31A642B01D90323E6E1534B2F
:1018EC001B6803F40033002BF0D100E000BF7B68D1
:1018FC001B6803F00203002B63D04C4B5B6803F0B6
:10190C000C03002B0BD0494B5B6803F00C03082B2A
:10191C001CD1464B5B6803F48033002B16D1434B30
:10192C001B6803F00203002B05D07B681B69012B9D
:10193C0001D00123BAE13D4B1B6823F0F8027B6810
:10194C005B69DB00394913430B603AE07B681B6928
:10195C00002B20D0364B01221A60FFF757FC386160
:10196C0008E0FFF753FC02463B69D31A022B01D95E
:10197C0003239BE12D4B1B6803F00203002BF0D0DB
:10198C002A4B1B6823F0F8027B685B69DB00274954
:10199C0013430B6015E0264B00221A60FFF736FC50
:1019AC00386108E0FFF732FC02463B69D31A022B80
:1019BC0001D903237AE11D4B1B6803F00203002BB2
:1019CC00F0D17B681B6803F00803002B3AD07B68CE
:1019DC009B69002B19D0174B01221A60FFF716FCDC
:1019EC00386108E0FFF712FC02463B69D31A022B60
:1019FC0001D903235AE10D4B5B6A03F00203002B60
:101A0C00F0D0012000F09AFA1CE00A4B00221A6078
:101A1C00FFF7FCFB38610FE0FFF7F8FB02463B6970
:101A2C00D31A022B08D9032340E100BF0010024057
:101A3C0000004242800442429E4B5B6A03F0020368
:101A4C00002BE9D17B681B6803F00403002B00F02A
:101A5C00A6800023FB75974BDB6903F08053002BAA
:101A6C000DD1944BDB69934A43F08053D361914B76
:101A7C00DB6903F08053BB60BB680123FB758E4BA5
:101A8C001B6803F48073002B18D18B4B1B688A4A9C
:101A9C0043F480731360FFF7B9FB386108E0FFF77C
:101AAC00B5FB02463B69D31A642B01D90323FDE035
:101ABC00814B1B6803F48073002BF0D07B68DB68D0
:101ACC00012B06D17B4B1B6A7A4A43F0010313624C
:101ADC002DE07B68DB68002B0CD1764B1B6A754ABA
:101AEC0023F001031362734B1B6A724A23F0040345
:101AFC0013621CE07B68DB68052B0CD16D4B1B6AF9
:101B0C006C4A43F0040313626A4B1B6A694A43F044
:101B1C00010313620BE0674B1B6A664A23F0010357
:101B2C001362644B1B6A634A23F0040313627B68E1
:101B3C00DB68002B15D0FFF769FB38610AE0FFF773
:101B4C0065FB02463B69D31A41F28832934201D9B4
:101B5C000323ABE0574B1B6A03F00203002BEED0C0
:101B6C0014E0FFF753FB38610AE0FFF74FFB024626
:101B7C003B69D31A41F28832934201D9032395E091
:101B8C004C4B1B6A03F00203002BEED1FB7D012BA7
:101B9C0005D1484BDB69474A23F08053D3617B68FE
:101BAC00DB69002B00F08180424B5B6803F00C0377
:101BBC00082B61D07B68DB69022B46D13F4B00229E
:101BCC001A60FFF723FB386108E0FFF71FFB0246A2
:101BDC003B69D31A022B01D9032367E0354B1B68F1
:101BEC0003F00073002BF0D17B681B6AB3F5803FC8
:101BFC0008D1304B5B6823F400327B689B682D491D
:101C0C0013434B602B4B5B6823F474127B68196A8B
:101C1C007B685B6A0B43274913434B60274B0122BC
:101C2C001A60FFF7F3FA386108E0FFF7EFFA0246A3
:101C3C003B69D31A022B01D9032337E01D4B1B68D8
:101C4C0003F00073002BF0D02FE01C4B00221A6025
:101C5C00FFF7DCFA386108E0FFF7D8FA02463B6977
:101C6C00D31A022B01D9032320E0124B1B6803F07B
:101C7C000073002BF0D118E07B68DB69012B01D1DC
:101C8C00012313E00B4B5B68FB60FB6803F48032B1
:101C9C007B681B6A9A4206D1FB6803F470127B685E
:101CAC005B6A9A4201D0012300E0002318461837E2
:101CBC00BD4680BD001002400070004060004242F2
:101CCC0080B584B000AF786039607B68002B01D19F
:101CDC000123D0E06A4B1B6803F007033A689A4271
:101CEC0010D9674B1B6823F0070265493B68134307
:101CFC000B60634B1B6803F007033A689A4201D0F0
:101D0C000123B8E07B681B6803F00203002B20D092
:101D1C007B681B6803F00403002B05D0594B5B68F0
:101D2C00584A43F4E06353607B681B6803F0080374
:101D3C00002B05D0534B5B68524A43F460535360FD
:101D4C00504B5B6823F0F0027B689B684D49134352
:101D5C004B607B681B6803F00103002B40D07B6851
:101D6C005B68012B07D1474B1B6803F40033002B36
:101D7C0015D101237FE07B685B68022B07D1414BB7
:101D8C001B6803F00073002B09D1012373E03D4B5A
:101D9C001B6803F00203002B01D101236BE0394BCC
:101DAC005B6823F003027B685B68364913434B6026
:101DBC00FFF72CFAF8600AE0FFF728FA0246FB68F6
:101DCC00D31A41F28832934201D9032353E02D4BAD
:101DDC005B6803F00C027B685B689B009A42EBD15A
:101DEC00274B1B6803F007033A689A4210D2244B26
:101DFC001B6823F0070222493B6813430B60204BFE
:101E0C001B6803F007033A689A4201D0012332E0C1
:101E1C007B681B6803F00403002B08D0194B5B682C
:101E2C0023F4E0627B68DB68164913434B607B68E4
:101E3C001B6803F00803002B09D0124B5B6823F4DA
:101E4C0060527B681B69DB000E4913434B6000F04A
:101E5C0021F802460B4B5B681B0903F00F030A4980
:101E6C00CB5C22FA03F3094A1360094B1B68184632
:101E7C00FFF78AF9002318461037BD4680BD00BF16
:101E8C000020024000100240FC2700083C0000200B
:101E9C004000002080B487B000AF0023FB6000231B
:101EAC00BB6000237B6100237B6000233B611E4BE6
:101EBC005B68FB60FB6803F00C03042B02D0082B5F
:101ECC0003D027E0194B3B6127E0FB689B0C03F028
:101EDC000F03174AD35C7B60FB6803F48033002B41
:101EEC0010D0114B5B685B0C03F00103114AD35CFF
:101EFC00BB607B680D4A02FB03F2BB68B2FBF3F3D9
:101F0C007B6104E07B680C4A02FB03F37B617B6919
:101F1C003B6102E0054B3B6100BF3B6918461C3737
:101F2C00BD4680BC704700BF0010024000127A0012
:101F3C000C2800081C28000800093D0080B485B05E
:101F4C0000AF78600A4B1B680A4AA2FB03235B0AAA
:101F5C007A6802FB03F3FB6000BFFB685A1EFA6051
:101F6C00002BF9D100BF00BF1437BD4680BC7047B1
:101F7C003C000020D34D621080B582B000AF786079
:101F8C007B68002B01D1012341E07B6893F83D3045
:101F9C00DBB2002B06D17B68002283F83C207868EA
:101FAC00FFF75AF87B68022283F83D207B681A6899
:101FBC007B6804331946104600F056FA7B68012200
:101FCC0083F846207B68012283F83E207B6801223F
:101FDC0083F83F207B68012283F840207B68012234
:101FEC0083F841207B68012283F842207B68012220
:101FFC0083F843207B68012283F844207B6801220C
:10200C0083F845207B68012283F83D200023184685
:10201C000837BD4680BD000080B485B000AF786045
:10202C007B6893F83D30DBB2012B01D0012335E006
:10203C007B68022283F83D207B681B68DA687B682A
:10204C001B6842F00102DA607B681B68164A9342F7
:10205C0009D07B681B68B3F1804F04D07B681B6888
:10206C00124A934211D17B681B689B6803F00703EB
:10207C00FB60FB68062B10D07B681B681A687B68BA
:10208C001B6842F001021A6007E07B681B681A6843
:10209C007B681B6842F001021A6000231846143753
:1020AC00BD4680BC704700BF002C014000040040BE
:1020BC0080B584B000AF78607B681B68DB68FB6020
:1020CC007B681B681B69BB60BB6803F00203002BB9
:1020DC0020D0FB6803F00203002B1BD07B681B682D
:1020EC006FF002021A617B6801221A777B681B6809
:1020FC009B6903F00303002B03D0786800F098F978
:10210C0005E0786800F08BF9786800F09AF97B6844
:10211C0000221A77BB6803F00403002B20D0FB6865
:10212C0003F00403002B1BD07B681B686FF00402C8
:10213C001A617B6802221A777B681B689B6903F41F
:10214C004073002B03D0786800F072F905E07868D2
:10215C0000F065F9786800F074F97B6800221A7752
:10216C00BB6803F00803002B20D0FB6803F00803C6
:10217C00002B1BD07B681B686FF008021A617B6810
:10218C0004221A777B681B68DB6903F00303002BBE
:10219C0003D0786800F04CF905E0786800F03FF95E
:1021AC00786800F04EF97B6800221A77BB6803F060
:1021BC001003002B20D0FB6803F01003002B1BD066
:1021CC007B681B686FF010021A617B6808221A7713
:1021DC007B681B68DB6903F44073002B03D07868C1
:1021EC0000F026F905E0786800F019F9786800F03D
:1021FC0028F97B6800221A77BB6803F00103002BD7
:10220C000CD0FB6803F00103002B07D07B681B6824
:10221C006FF001021A617868FEF73CFEBB6803F0B0
:10222C008003002B0CD0FB6803F08003002B07D03D
:10223C007B681B686FF080021A61786800F06FFA97
:10224C00BB6803F04003002B0CD0FB6803F0400389
:10225C00002B07D07B681B686FF040021A6178680E
:10226C0000F0F8F8BB6803F02003002B0CD0FB68DF
:10227C0003F02003002B07D07B681B686FF0200253
:10228C001A61786800F042FA00BF1037BD4680BD75
:10229C0080B584B000AF786039600023FB737B6835
:1022AC0093F83C30012B01D10223B4E07B6801226E
:1022BC0083F83C207B68022283F83D207B681B68F6
:1022CC009B68BB60BB6823F07703BB60BB6823F4DF
:1022DC007F43BB607B681B68BA689A603B681B686D
:1022EC00B3F5005F3ED0B3F5005F00F28780B3F525
:1022FC00805F00F08680B3F5805F7FD8702B1AD09A
:10230C00702B7BD8602B50D0602B77D8502B3CD0C7
:10231C00502B73D8402B58D0402B6FD8302B64D017
:10232C00302B6BD8202B60D0202B67D8002B5CD0A7
:10233C00102B5AD062E07B6818683B6899683B6840
:10234C005A683B68DB6800F06AF97B681B689B681D
:10235C00BB60BB6843F07703BB607B681B68BA68E3
:10236C009A604FE07B6818683B6899683B685A68CC
:10237C003B68DB6800F053F97B681B689A687B68E4
:10238C001B6842F480429A603CE07B6818683B68AA
:10239C0059683B68DB681A4600F0CAF87B681B6812
:1023AC005021184600F021F92CE07B6818683B6836
:1023BC0059683B68DB681A4600F0E8F87B681B68D4
:1023CC006021184600F011F91CE07B6818683B6826
:1023DC0059683B68DB681A4600F0AAF87B681B68F2
:1023EC004021184600F001F90CE07B681A683B6844
:1023FC001B681946104600F0F8F803E00123FB7344
:10240C0000E000BF7B68012283F83D207B6800223E
:10241C0083F83C20FB7B18461037BD4680BD80B44A
:10242C0083B000AF786000BF0C37BD4680BC7047EE
:10243C0080B483B000AF786000BF0C37BD4680BC61
:10244C00704780B483B000AF786000BF0C37BD46D6
:10245C0080BC704780B483B000AF786000BF0C378D
:10246C00BD4680BC7047000080B485B000AF78607A
:10247C0039607B681B68FB607B682B4A934207D0F2
:10248C007B68B3F1804F03D07B68284A934208D114
:10249C00FB6823F07003FB603B685B68FA681343CE
:1024AC00FB607B68204A934207D07B68B3F1804F76
:1024BC0003D07B681D4A934208D1FB6823F4407318
:1024CC00FB603B68DB68FA681343FB60FB6823F036
:1024DC0080023B685B691343FB607B68FA681A6097
:1024EC003B689A687B68DA623B681A687B689A6218
:1024FC007B680D4A934203D13B681A697B681A6367
:10250C007B6801225A617B681B6903F00103002B75
:10251C0005D07B681B6923F001027B681A6100BF40
:10252C001437BD4680BC7047002C014000040040AD
:10253C0080B487B000AFF860B9607A60FB681B6A42
:10254C007B61FB681B6A23F00102FB681A62FB6863
:10255C009B693B613B6923F0F0033B617B681B018A
:10256C003A6913433B617B6923F00A037B617A6907
:10257C00BB6813437B61FB683A699A61FB687A69B3
:10258C001A6200BF1C37BD4680BC704780B487B050
:10259C0000AFF860B9607A60FB681B6A7B61FB680E
:1025AC001B6A23F01002FB681A62FB689B693B6193
:1025BC003B6923F470433B617B681B033A6913430B
:1025CC003B617B6923F0A0037B61BB681B017A69CB
:1025DC0013437B61FB683A699A61FB687A691A62FA
:1025EC0000BF1C37BD4680BC704780B485B000AFBF
:1025FC00786039607B689B68FB60FB6823F0700334
:10260C00FB603A68FB68134343F00703FB607B688D
:10261C00FA689A6000BF1437BD4680BC704780B41E
:10262C0087B000AFF860B9607A603B60FB689B686C
:10263C007B617B6923F47F437B613B681A027B6877
:10264C001A43BB6813437A6913437B61FB687A694D
:10265C009A6000BF1C37BD4680BC704780B485B003
:10266C0000AF786039607B6893F83C30012B01D166
:10267C00022341E07B68012283F83C207B68022224
:10268C0083F83D207B681B685B68FB607B681B687C
:10269C009B68BB60FB6823F07003FB603B681B68A6
:1026AC00FA681343FB607B681B68FA685A607B68A6
:1026BC001B68144A934209D07B681B68B3F1804FA6
:1026CC0004D07B681B68104A93420CD1BB6823F082
:1026DC008003BB603B685B68BA681343BB607B6874
:1026EC001B68BA689A607B68012283F83D207B687E
:1026FC00002283F83C20002318461437BD4680BCCA
:10270C00704700BF002C01400004004080B483B02F
:10271C0000AF786000BF0C37BD4680BC704780B4FA
:10272C0083B000AF786000BF0C37BD4680BC7047EB
:10273C0070B500260C4D0D4C641BA410A64209D19B
:10274C0000F022F800260A4D0A4C641BA410A64285
:10275C0005D170BD55F8043B98470136EEE755F8A6
:10276C00043B98470136F2E720280008202800088F
:10277C00202800082428000803460244934200D174
:10278C00704703F8011BF9E7F8B500BFF8BC08BCAB
:10279C009E467047F8B500BFF8BC08BC9E46704713
:1027AC00010000004F0000001200000006000000B5
:1027BC004C00000024000000200000000F0000006E
:1027CC0000000000040000008000000080270000D2
:1027DC0000090000000300000026000000120000A9
:1027EC000010000080070000000000000002000044
:1027FC0000000000000000000102030406070809A5
:10280C0002030405060708090A0B0C0D0E0F101025
:04281C0001020000B5
:04282000310100087A
:042824000D0100089A
:102828000600000003000000020000000100000094
:10283800C8000000C8000000C800000070170000B1
:10284800D0070000B80B000070170000D007000088
:10285800B80B0000030000001400000000127A000A
:08286800100000000100000057
:040000050800111DC1
:00000001FF
