:020000040800F2
:100000000028002091110008550F00085B0F000820
:10001000610F0008670F00086D0F00080000000066
:10002000000000000000000000000000730F000846
:100030007F0F0008000000008B0F0008970F0008DA
:10004000D9110008D9110008D9110008D9110008E8
:10005000D9110008D9110008D9110008D9110008D8
:10006000D9110008D9110008D9110008D9110008C8
:10007000D9110008D9110008D9110008D9110008B8
:10008000D9110008D9110008D9110008D9110008A8
:10009000D9110008D9110008D9110008D911000898
:1000A000D9110008D9110008D9110008D911000888
:1000B000A50F0008D911000800000000D9110008A0
:1000C000D91100080000000000000000D91100084C
:1000D00000000000D9110008D9110008000000003C
:1000E000D9110008D9110008D9110008000000003A
:1000F0000000000000000000000000000000000000
:0C01000000000000000000005FF808F1A3
:10010C0010B5054C237833B9044B13B10448AFF345
:10011C0000800123237010BD940800200000000013
:10012C000030000808B5034B1BB103490348AFF37B
:10013C00008008BD00000000980800200030000876
:10014C0080B500AF1F4B1B78002B05D01D4B1B78C7
:10015C00013BDAB21B4B1A701A4B1B78002B0CD1DB
:10016C000121194801F01EFB0346002B05D1174B4A
:10017C0001221A60134B0A221A70124B1B78002BA7
:10018C000CD10221104801F00DFB0346002B05D1C8
:10019C000E4B01225A600B4B0A221A70094B1B782A
:1001AC00002B0CD10421084801F0FCFA0346002B6B
:1001BC0005D1064B01229A60024B0A221A7000BF2D
:1001CC0080BD00BFBC080020000C0140B00800201E
:1001DC0080B483B000AF7860094A7B6852F8233052
:1001EC00012B06D1064A7B68002142F8231001231B
:1001FC0000E0002318460C37BD4680BC704700BF9A
:10020C00B008002080B500AF012000F02DF800BF31
:10021C0080BD80B500AF002000F026F800BF80BD87
:10022C0080B400AF064B1B68002B04DD044B1B682D
:10023C00013B034A136000BFBD4680BC704700BF42
:10024C00C408002080B400AF064B1B68002B04DDF3
:10025C00044B1B68013B034A136000BFBD4680BCC6
:10026C00704700BFC808002080B582B000AF78602E
:10027C007B68002B1ED1204B1A68204B83FB02138A
:10028C009910D317C91A0B469B000B445B00D11A6B
:10029C00002000F00DFB184B1B68184A82FB031260
:1002AC009210DB17D31A1946012000F001FBFFF75F
:1002BC00B7FF1DE0124B1A68104B83FB0213991009
:1002CC00D317C91A0B469B000B445B00D11A0220B2
:1002DC0000F0EEFA0A4B1B68084A82FB03129210DC
:1002EC00DB17D31A1946032000F0E2FAFFF7AAFF36
:1002FC0000BF0837BD4680BDC4080020676666662F
:10030C00C808002080B500AF254B1B68013B032BB0
:10031C0042D801A252F823F0350300084B03000821
:10032C008703000869030008002000F07BFE1D4BCA
:10033C001B681D4A13601A4B02221A602DE0002024
:10034C0000F09CFE174B1B684FF4FA7202FB03F390
:10035C0000221946154800F0EFFB1EE0002000F0CB
:10036C00E5FE134B1B684FF4FA7202FB03F30022F9
:10037C001946104800F0E0FB0FE0002000F0AAFE48
:10038C000D4B1B684FF4FA7202FB03F30022194663
:10039C000A4800F0D1FB00E000BF00BF80BD00BFE9
:1003AC00000000200C000020C40800208904000874
:1003BC0010000020B104000814000020D90400082B
:1003CC0080B500AF254B5B68013B032B42D801A2E3
:1003DC0052F823F0F1030008070400084304000856
:1003EC0025040008012000F01DFE1D4B1B681D4A52
:1003FC0013601A4B03225A602DE0012000F03EFEE0
:10040C00194B1B684FF4FA7202FB03F300221946D6
:10041C00164800F091FB1EE0012000F087FE144B03
:10042C001B684FF4FA7202FB03F3002219461148C1
:10043C0000F082FB0FE0012000F04CFE084B1B6823
:10044C004FF4FA7202FB03F3002219460A4800F03B
:10045C0073FB00E000BF00BF80BD00BF00000020A8
:10046C0014000020C80800200C0000200105000822
:10047C0010000020290500085105000880B400AFC9
:10048C00054B03221A60054B1B68054A136000BF1D
:10049C00BD4680BC704700BF000000201400002047
:1004AC00C408002080B400AF054B02221A60054B33
:1004BC001B68054A136000BFBD4680BC704700BF77
:1004CC00000000200C000020C408002080B400AF05
:1004DC00054B1B68054A1360054B04221A6000BFCC
:1004EC00BD4680BC704700BF10000020C40800202F
:1004FC000000002080B400AF054B03225A60054B6E
:10050C001B68054A136000BFBD4680BC704700BF26
:10051C000000002014000020C808002080B400AFA8
:10052C00054B02225A60054B1B68054A136000BF3D
:10053C00BD4680BC704700BF000000200C000020AE
:10054C00C808002080B400AF054B1B68054A136037
:10055C00054B04225A6000BFBD4680BC704700BFEB
:10056C0010000020C80800200000002080B582B0D8
:10057C0000AF7860002000F055FD012000F052FD26
:10058C00034A7B68136000BF0837BD4680BD00BFBF
:10059C000800002080B582B000AF786039607968BF
:1005AC00002000F085F90021012000F081F93A6863
:1005BC000E4B83FB02139910D317C91A0B469B00E1
:1005CC000B445B00D11A022000F072F93B68074A19
:1005DC0082FB03129210DB17D31A1946032000F08A
:1005EC0067F900BF0837BD4680BD00BF6766666609
:1005FC0080B500AF8C4B1B680B3B032B00F20981C1
:10060C0001A252F823F000BF250600088706000857
:10061C000F070008950700080A220021834800F004
:10062C008BFA0A220021824800F086FA4FF4FA7203
:10063C000021804800F080FA4FF4FA7200217E48C5
:10064C0000F07AFA0020FFF7C3FD0346012B40F0BF
:10065C00E280764800F0AEFB754800F0ABFB7548C5
:10066C0000F0A8FB744800F0A5FB744B1B68744A9F
:10067C0013600C20FFF77AFFCDE0714B1B68194615
:10068C000220FFF787FF02216E4801F0BAF8102113
:10069C006C4801F0B6F80020FFF79AFD0346012BD9
:1006AC0006D1694B1B68664A13600D20FFF75EFF8D
:1006BC000120FFF78DFD0346012B16D1604B1B6803
:1006CC0001335F4A13605E4B1A68604B83FB021365
:1006DC005911D317CB1A642101FB03F3D31A584ACF
:1006EC001360574B1B68554A13600220FFF770FDCF
:1006FC000346012B40F09180514B1B684F4A13600D
:10070C008BE04F4B1B6819460320FFF743FF042176
:10071C004C4801F076F820214A4801F072F800208C
:10072C00FFF756FD0346012B06D1494B1B68444A83
:10073C0013600E20FFF71AFF0120FFF749FD034657
:10074C00012B16D13E4B1B6801333D4A13603C4BC9
:10075C001A683E4B83FB02135911D317CB1A642131
:10076C0001FB03F3D31A364A1360354B1B68364A28
:10077C0013600220FFF72CFD0346012B4FD1304BA9
:10078C001B68314A13604AE02D4B1B681946042044
:10079C00FFF700FF08212B4801F033F840212948CE
:1007AC0001F02FF80020FFF713FD0346012B08D1B1
:1007BC00284B01221A60274B01225A600B20FFF7AD
:1007CC00D5FE0120FFF704FD0346012B16D11C4B6F
:1007DC001B6801331A4A1360194B1A681B4B83FBB5
:1007EC0002135911D317CB1A642101FB03F3D31A4B
:1007FC00134A1360124B1B68154A13600220FFF753
:10080C00E7FC0346012B0CD10D4B1B68104A1360FF
:10081C0007E000BF06E000BF04E000BF02E000BF3D
:10082C0000E000BF00BF80BD0800002011030008DD
:10083C00CD030008110200081F0200080C00002064
:10084C00C008002000080140100000201F85EB515B
:10085C00140000200000002080B582B000AF78604A
:10086C000B467B807B68082B0ADC0D4A7B6832F8D0
:10087C0013307A88D2B219460A4800F0AAFF0AE06F
:10088C007B68093B084A32F813307A88D2B2194691
:10089C00064800F09EFF00BF0837BD4680BD00BF74
:1008AC001C0000200008014030000020000C01401A
:1008BC0080B584B000AF786039603B68002B02DBF8
:1008CC003B68092B01DD00233B600023FB6011E03A
:1008DC007B689A00FB68D0183A68FB6842FA03F30D
:1008EC009BB203F001039BB21946FFF7B5FFFB68FF
:1008FC000133FB60FB68032BEADD00BF00BF103740
:10090C00BD4680BD80B500AF00F062FC00F01AF867
:10091C0000F0A0F800F052F8074801F0B7FB0A22EB
:10092C000021064800F008F90A220021044800F0D2
:10093C0003F900F089F9FCE704090020FD05000823
:10094C004D01000880B590B000AF07F118032822C4
:10095C000021184602F0A2F93B1D00221A605A60D1
:10096C009A60DA601A610223BB610123BB62102317
:10097C00FB6200237B6307F11803184600F05AFF53
:10098C000346002B01D000F0D1F80F237B6000232D
:10099C00BB600023FB6000233B6100237B613B1D9C
:1009AC000021184601F0C6F90346002B01D000F0D7
:1009BC00BDF800BF4037BD4680BD000080B586B095
:1009CC0000AF07F1080300221A605A609A60DA60DF
:1009DC003B4600221A605A601D4B4FF080421A6051
:1009EC001B4B41F63F725A60194B00229A60184B10
:1009FC000922DA60164B00221A61154B00229A610B
:100A0C00134801F0F3FA0346002B01D000F08EF8E6
:100A1C004FF48053BB6007F1080319460C4801F0F2
:100A2C0071FC0346002B01D000F080F800233B60E2
:100A3C0000237B603B461946054801F049FE0346FE
:100A4C00002B01D000F072F800BF1837BD4680BDF6
:100A5C000409002080B586B000AF07F1080300221E
:100A6C001A605A609A60DA60284B9B69274A43F0F7
:100A7C0004039361254B9B6903F004037B607B6843
:100A8C00224B9B69214A43F0080393611F4B9B69DE
:100A9C0003F008033B603B6800224FF6FE711C48D4
:100AAC0000F097FE00224FF47E711A4800F091FE80
:100ABC004FF6FE73BB600123FB6000233B610223F6
:100ACC007B6107F108031946114800F0F1FC07237C
:100ADC00BB600023FB6001233B6107F1080319464F
:100AEC000C4800F0E5FC4FF47E73BB600123FB6007
:100AFC0000233B6102237B6107F10803194605487B
:100B0C0000F0D6FC00BF1837BD4680BD0010024077
:100B1C0000080140000C014080B582B000AF786045
:100B2C0000F05CF800BF0837BD4680BD80B400AF54
:100B3C0072B600BFFEE7000080B586B000AFF8606B
:100B4C00B9607A60F86800F085F90346012B3BD058
:100B5C00142001F051FE03467B617B69002B35D0DC
:100B6C007B69FA681A60BB681A4AA2FB0323DA088D
:100B7C007B695A607B68174AA2FB0323DA087B69FE
:100B8C009A607B690022DA607B6900221A61124B41
:100B9C001B68002B06D1104A7B6913600E4A7B69D7
:100BAC0053600AE00C4B5A687B691A610A4B5B680C
:100BBC007A69DA60084A7B695360074B1B7A013308
:100BCC00DAB2054B1A7202E000BF00E000BF183722
:100BDC00BD4680BDCDCCCCCC4C09002080B582B0BC
:100BEC0000AF184B1B687B6024E07B685B68002BB4
:100BFC0005D07B685B685A1E7B685A6017E07B687F
:100C0C001B68184600F03EF87B689A687B685A604F
:100C1C007B689B68002B0AD17B683B607B68DB6838
:100C2C007B603B681B68184600F0C4F802E07B68E8
:100C3C00DB687B607B68002BD7D100BF00BF083717
:100C4C00BD4680BD4C09002080B582B000AF0C4B76
:100C5C001B687B600CE07B681B6898477B683B607B
:100C6C007B68DB687B603B681B68184600F03EF8CD
:100C7C007B68002BEFD100BF00BF0837BD4680BD9D
:100C8C005809002080B584B000AF7860142001F0C2
:100C9C00B3FD0346FB60FB687A681A60FB680022B0
:100CAC00DA60FB6800221A610F4B1B7A002B06D10D
:100CBC000D4AFB6813600C4AFB6853600AE00A4B50
:100CCC005A68FB681A61084B5B68FA68DA60064A76
:100CDC00FB685360044B1B7A0133DAB2024B1A7275
:100CEC0000BF1037BD4680BD5809002080B584B0C8
:100CFC0000AF78602E4B1B7A002B54D02C4B1B7AF8
:100D0C00012B12D12A4B1B68BB60294B00221A60A5
:100D1C00274B00225A60B86801F076FD244B1B7AF1
:100D2C00013BDAB2224B1A723EE0214B1B68FB608E
:100D3C0035E0FB681B687A689A422DD1FB681B6909
:100D4C00002B08D1FB68DB6800221A61FB68DB68AA
:100D5C00174A136016E0FB68DB68002B08D1FB68B0
:100D6C001B690022DA60FB681B69114A536009E0B9
:100D7C00FB681B69FA68D268DA60FB68DB68FA68A2
:100D8C0012691A610A4B1B7A013BDAB2084B1A72D0
:100D9C00F86801F039FD07E0FB68DB68FB60FB6875
:100DAC00002BC6D100E000BF1037BD4680BD00BF90
:100DBC005809002080B584B000AF7860244B1B7AB2
:100DCC00002B01D100233EE0214B1B68FB6036E079
:100DDC00FB681B687A689A422ED1FB681B69002B52
:100DEC0008D1FB68DB6800221A61FB68DB68184AD3
:100DFC00136016E0FB68DB68002B08D1FB681B69ED
:100E0C000022DA60FB681B69114A536009E0FB6839
:100E1C001B69FA68D268DA60FB68DB68FA681269E9
:100E2C001A610B4B1B7A013BDAB2094B1A72F86848
:100E3C0001F0EAFC012306E0FB68DB68FB60FB6861
:100E4C00002BC5D1002318461037BD4680BD00BF0E
:100E5C004C09002080B485B000AF78600E4B1B7A33
:100E6C00002B01D1002311E00B4B1B68FB6009E048
:100E7C00FB681B687A689A4201D1012306E0FB6883
:100E8C00DB68FB60FB68002BF2D10023184614379B
:100E9C00BD4680BC704700BF4C09002080B485B0B3
:100EAC0000AF154B9B69144A43F001039361124B3D
:100EBC009B6903F00103BB60BB680F4BDB690E4AF7
:100ECC0043F08053D3610C4BDB6903F080537B60A0
:100EDC007B680A4B5B68FB60FB6823F0E063FB609C
:100EEC00FB6843F08063FB60044AFB68536000BFFF
:100EFC001437BD4680BC7047001002400000014012
:100F0C0080B584B000AF78607B681B68B3F1804F0C
:100F1C0013D10C4BDB690B4A43F00103D361094B32
:100F2C00DB6903F00103FB60FB68002200211C203D
:100F3C0000F087FA1C2000F0A0FA00BF1037BD4665
:100F4C0080BD00BF0010024080B400AFFEE780B44B
:100F5C0000AFFEE780B400AFFEE780B400AFFEE761
:100F6C0080B400AFFEE780B400AF00BFBD4680BCCC
:100F7C00704780B400AF00BFBD4680BC704780B4E2
:100F8C0000AF00BFBD4680BC704780B500AF00F01D
:100F9C0065F900BF80BD000080B500AF024801F0CC
:100FAC00C1F800BF80BD00BF0409002080B586B029
:100FBC0000AF7860144A154BD31A7B617B693B6197
:100FCC00134B1B68002B02D1114B124A1A60104BA9
:100FDC001A687B6813443A699A4207D201F0E2FB23
:100FEC0003460C221A604FF0FF3309E0084B1B68D4
:100FFC00FB60074B1A687B681344054A1360FB6857
:10100C0018461837BD4680BD00280020000400009B
:10101C00CC0800207809002080B400AF00BFBD468A
:10102C0080BC704780B582B000AF78600F4A7B6897
:10103C0032F81330012219460D4800F0CAFB0D4A54
:10104C007B6832F8133001221946094800F0C1FBC5
:10105C00094A7B6832F8133001221946044800F023
:10106C00B8FB00BF0837BD4680BD00BF4000002064
:10107C0000080140440000204800002080B582B0E8
:10108C0000AF78600F4A7B6832F8133000221946A3
:10109C000D4800F09EFB0D4A7B6832F8133001229C
:1010AC001946094800F095FB094A7B6832F8133061
:1010BC0001221946044800F08CFB00BF0837BD46DE
:1010CC0080BD00BF4000002000080140440000200B
:1010DC004800002080B582B000AF78600F4A7B6872
:1010EC0032F81330012219460D4800F072FB0D4AFC
:1010FC007B6832F8133000221946094800F069FB6E
:10110C00094A7B6832F8133001221946044800F072
:10111C0060FB00BF0837BD4680BD00BF400000200B
:10112C0000080140440000204800002080B582B037
:10113C0000AF78600F4A7B6832F8133001221946F1
:10114C000D4800F046FB0D4A7B6832F81330012243
:10115C001946094800F03DFB094A7B6832F8133008
:10116C0000221946044800F034FB00BF0837BD4686
:10117C0080BD00BF4000002000080140440000205A
:10118C0048000020FFF748FF0B480C490C4A00238D
:10119C0002E0D458C4500433C4188C42F9D3094A21
:1011AC00094C002301E013600432A242FBD301F08E
:1011BC00FFFAFFF7A7FB70470000002094080020FF
:1011CC004C3000089408002078090020FEE700004D
:1011DC0080B500AF084B1B68074A43F0100313603F
:1011EC00032000F023F90F2000F008F8FFF756FE5B
:1011FC000023184680BD00BF0020024080B582B09D
:10120C0000AF7860124B1A68124B1B7819464FF4DA
:10121C007A73B3FBF1F3B2FBF3F3184600F03BF92E
:10122C000346002B01D001230EE07B680F2B0AD85C
:10123C00002279684FF0FF3000F003F9064A7B6812
:10124C001360002300E0012318460837BD4680BD1B
:10125C0018000020500000204C00002080B400AF8B
:10126C00054B1B781A46054B1B681344034A136045
:10127C0000BFBD4680BC70475000002064090020B0
:10128C0080B400AF024B1B681846BD4680BC70474B
:10129C006409002080B485B000AF78607B6803F0EF
:1012AC000703FB600C4BDB68BB60BA684FF6FF03AF
:1012BC001340BB60FB681A02BB68134343F0BF6367
:1012CC0043F40033BB60044ABB68D36000BF1437DF
:1012DC00BD4680BC704700BF00ED00E080B400AF9D
:1012EC00044BDB681B0A03F007031846BD4680BCA1
:1012FC00704700BF00ED00E080B483B000AF034640
:10130C00FB7197F90730002B0BDBFB7903F01F0205
:10131C00064997F907305B09012000FA02F241F8FF
:10132C00232000BF0C37BD4680BC704700E100E0B5
:10133C0080B483B000AF03463960FB7197F9073076
:10134C00002B0ADB3B68DAB20C4997F90730120123
:10135C00D2B20B4483F800230AE03B68DAB20849A6
:10136C00FB7903F00F03043B1201D2B20B441A7643
:10137C0000BF0C37BD4680BC704700BF00E100E0E9
:10138C0000ED00E080B489B000AFF860B9607A601D
:10139C00FB6803F00703FB61FB69C3F10703042B34
:1013AC0028BF0423BB61FB690433062B02D9FB69FC
:1013BC00033B00E000237B614FF0FF32BB6902FA74
:1013CC0003F3DA43BB681A407B699A404FF0FF3154
:1013DC007B6901FA03F3D9437B680B40134318462E
:1013EC002437BD4680BC704780B582B000AF7860B2
:1013FC007B68013BB3F1807F01D301230FE00A4AE4
:10140C007B68013B53600F214FF0FF30FFF790FFDB
:10141C00054B00229A60044B07221A6000231846E1
:10142C000837BD4680BD00BF10E000E080B582B03B
:10143C0000AF78607868FFF72DFF00BF0837BD4616
:10144C0080BD80B586B000AF0346B9607A60FB738F
:10145C0000237B61FFF742FF78617A68B96878698D
:10146C00FFF790FF024697F90F3011461846FFF729
:10147C005FFF00BF1837BD4680BD80B582B000AF9E
:10148C000346FB7197F907301846FFF735FF00BF8D
:10149C000837BD4680BD80B582B000AF78607868F3
:1014AC00FFF7A2FF034618460837BD4680BD000073
:1014BC0080B48BB000AF7860396000237B6200236E
:1014CC003B6248E101227B6A02FA03F3FB613B6851
:1014DC001B68FA691340BB61BA69FB699A4240F018
:1014EC0037813B685B68A34A93425ED0A14A934222
:1014FC0075D8A14A934258D09F4A93426FD89F4ABD
:10150C00934252D09D4A934269D89D4A93424CD003
:10151C009B4A934263D89B4A934246D0994A934242
:10152C005DD8122B2AD8122B59D801A252F823F0CD
:10153C00B715000891150008A3150008E51500085B
:10154C00EB150008EB150008EB150008EB1500086F
:10155C00EB150008EB150008EB150008EB1500085F
:10156C00EB150008EB150008EB150008EB1500084F
:10157C00EB15000899150008AD150008824A934236
:10158C0013D02CE03B68DB683B6229E03B68DB68EE
:10159C0004333B6224E03B68DB6808333B621FE0AA
:1015AC003B68DB680C333B621AE03B689B68002BA2
:1015BC0002D104233B6213E03B689B68012B05D1ED
:1015CC0008233B627B68FA691A6109E008233B62D5
:1015DC007B68FA695A6103E000233B6200E000BFBC
:1015EC00BB69FF2B01D87B6801E07B6804337B610E
:1015FC00BB69FF2B02D87B6A9B0002E07B6A083B2D
:10160C009B003B617B691A680F213B6901FA03F36C
:10161C00DB431A40396A3B6901FA03F31A437B69CD
:10162C001A603B685B6803F08053002B00F09080DD
:10163C00564B9B69554A43F001039361534B9B698D
:10164C0003F00103BB60BB68514A7B6A9B08023301
:10165C0052F82330FB607B6A03F003039B000F22DC
:10166C0002FA03F3DB43FA681340FB607B68494AD8
:10167C0093420DD07B68484A934207D07B68474A17
:10168C00934201D1022304E0032302E0012300E092
:10169C0000237A6A02F0030292009340FA68134323
:1016AC00FB603B497B6A9B080233FA6841F82320B4
:1016BC003B685B6803F48013002B06D0384B9A68A8
:1016CC003749BB6913438B6006E0354B9A68BB699D
:1016DC00DB43334913408B603B685B6803F40013B6
:1016EC00002B06D02E4BDA682D49BB691343CB6017
:1016FC0006E02B4BDA68BB69DB4329491340CB600E
:10170C003B685B6803F40033002B06D0244B5A680B
:10171C002349BB6913434B6006E0214B5A68BB69F4
:10172C00DB431F4913404B603B685B6803F4803319
:10173C00002B06D01A4B1A681949BB6913430B606E
:10174C0006E0174B1A68BB69DB43154913400B6065
:10175C007B6A01337B623B681A687B6A22FA03F36B
:10176C00002B7FF4AFAE00BF00BF2C37BD4680BC52
:10177C00704700BF00003210000031100000221032
:10178C000000211000001210000011100010024087
:10179C000000014000080140000C01400010014015
:1017AC000004014080B485B000AF78600B467B80AC
:1017BC007B689A687B881340002B02D00123FB7353
:1017CC0001E00023FB73FB7B18461437BD4680BC3D
:1017DC00704780B483B000AF78600B467B801346B3
:1017EC007B707B78002B03D07A887B681A6103E0CE
:1017FC007B881A047B681A6100BF0C37BD4680BC1D
:10180C00704780B485B000AF78600B467B807B68F6
:10181C00DB68FB607A88FB6813401A04FB68D943C9
:10182C007B880B401A437B681A6100BF1437BD4696
:10183C0080BC704780B586B000AF78607B68002BA9
:10184C0001D101236CE27B681B6803F00103002BC0
:10185C0000F08780924B5B6803F00C03042B0CD0D8
:10186C008F4B5B6803F00C03082B12D18C4B5B681D
:10187C0003F48033B3F5803F0BD1894B1B6803F421
:10188C000033002B6CD07B685B68002B68D1012384
:10189C0046E27B685B68B3F5803F06D1804B1B68E2
:1018AC007F4A43F4803313602EE07B685B68002B27
:1018BC000CD17B4B1B687A4A23F480331360784B32
:1018CC001B68774A23F4802313601DE07B685B68F8
:1018DC00B3F5A02F0CD1724B1B68714A43F48023D3
:1018EC0013606F4B1B686E4A43F4803313600BE03C
:1018FC006B4B1B686A4A23F480331360684B1B687C
:10190C00674A23F4802313607B685B68002B13D039
:10191C00FFF7B6FC386108E0FFF7B2FC02463B6902
:10192C00D31A642B01D90323FAE15D4B1B6803F432
:10193C000033002BF0D014E0FFF7A2FC386108E074
:10194C00FFF79EFC02463B69D31A642B01D9032393
:10195C00E6E1534B1B6803F40033002BF0D100E09D
:10196C0000BF7B681B6803F00203002B63D04C4B59
:10197C005B6803F00C03002B0BD0494B5B6803F046
:10198C000C03082B1CD1464B5B6803F48033002BF3
:10199C0016D1434B1B6803F00203002B05D07B6868
:1019AC001B69012B01D00123BAE13D4B1B6823F0CD
:1019BC00F8027B685B69DB00394913430B603AE042
:1019CC007B681B69002B20D0364B01221A60FFF775
:1019DC0057FC386108E0FFF753FC02463B69D31A09
:1019EC00022B01D903239BE12D4B1B6803F002034F
:1019FC00002BF0D02A4B1B6823F0F8027B685B6944
:101A0C00DB00274913430B6015E0264B00221A60BC
:101A1C00FFF736FC386108E0FFF732FC02463B6901
:101A2C00D31A022B01D903237AE11D4B1B6803F057
:101A3C000203002BF0D17B681B6803F00803002B1A
:101A4C003AD07B689B69002B19D0174B01221A6086
:101A5C00FFF716FC386108E0FFF712FC02463B6901
:101A6C00D31A022B01D903235AE10D4B5B6A03F005
:101A7C000203002BF0D0012000F09AFA1CE00A4B74
:101A8C0000221A60FFF7FCFB38610FE0FFF7F8FB50
:101A9C0002463B69D31A022B08D9032340E100BF4D
:101AAC000010024000004242800442429E4B5B6A9E
:101ABC0003F00203002BE9D17B681B6803F00403DD
:101ACC00002B00F0A6800023FB75974BDB6903F01D
:101ADC008053002B0DD1944BDB69934A43F0805318
:101AEC00D361914BDB6903F08053BB60BB6801236E
:101AFC00FB758E4B1B6803F48073002B18D18B4B3A
:101B0C001B688A4A43F480731360FFF7B9FB386192
:101B1C0008E0FFF7B5FB02463B69D31A642B01D9E9
:101B2C000323FDE0814B1B6803F48073002BF0D082
:101B3C007B68DB68012B06D17B4B1B6A7A4A43F02E
:101B4C00010313622DE07B68DB68002B0CD1764B14
:101B5C001B6A754A23F001031362734B1B6A724AAA
:101B6C0023F0040313621CE07B68DB68052B0CD1AB
:101B7C006D4B1B6A6C4A43F0040313626A4B1B6A7D
:101B8C00694A43F0010313620BE0674B1B6A664A18
:101B9C0023F001031362644B1B6A634A23F00403B2
:101BAC0013627B68DB68002B15D0FFF769FB38618B
:101BBC000AE0FFF765FB02463B69D31A41F2883213
:101BCC00934201D90323ABE0574B1B6A03F002038A
:101BDC00002BEED014E0FFF753FB38610AE0FFF75F
:101BEC004FFB02463B69D31A41F28832934201D92A
:101BFC00032395E04C4B1B6A03F00203002BEED140
:101C0C00FB7D012B05D1484BDB69474A23F0805300
:101C1C00D3617B68DB69002B00F08180424B5B68F1
:101C2C0003F00C03082B61D07B68DB69022B46D1D7
:101C3C003F4B00221A60FFF723FB386108E0FFF7E7
:101C4C001FFB02463B69D31A022B01D9032367E021
:101C5C00354B1B6803F00073002BF0D17B681B6ABB
:101C6C00B3F5803F08D1304B5B6823F400327B68BE
:101C7C009B682D4913434B602B4B5B6823F4741208
:101C8C007B68196A7B685B6A0B43274913434B607B
:101C9C00274B01221A60FFF7F3FA386108E0FFF7CF
:101CAC00EFFA02463B69D31A022B01D9032337E022
:101CBC001D4B1B6803F00073002BF0D02FE01C4B66
:101CCC0000221A60FFF7DCFA386108E0FFF7D8FA57
:101CDC0002463B69D31A022B01D9032320E0124B95
:101CEC001B6803F00073002BF0D118E07B68DB69F4
:101CFC00012B01D1012313E00B4B5B68FB60FB68EC
:101D0C0003F480327B681B6A9A4206D1FB6803F4A9
:101D1C0070127B685B6A9A4201D0012300E00023B9
:101D2C0018461837BD4680BD0010024000700040B8
:101D3C006000424280B584B000AF786039607B6847
:101D4C00002B01D10123D0E06A4B1B6803F0070381
:101D5C003A689A4210D9674B1B6823F00702654911
:101D6C003B6813430B60634B1B6803F007033A6833
:101D7C009A4201D00123B8E07B681B6803F0020390
:101D8C00002B20D07B681B6803F00403002B05D0CC
:101D9C00594B5B68584A43F4E06353607B681B689B
:101DAC0003F00803002B05D0534B5B68524A43F4F5
:101DBC0060535360504B5B6823F0F0027B689B6868
:101DCC004D4913434B607B681B6803F00103002BE8
:101DDC0040D07B685B68012B07D1474B1B6803F431
:101DEC000033002B15D101237FE07B685B68022B4D
:101DFC0007D1414B1B6803F00073002B09D1012361
:101E0C0073E03D4B1B6803F00203002B01D101234F
:101E1C006BE0394B5B6823F003027B685B683649E7
:101E2C0013434B60FFF72CFAF8600AE0FFF728FA2F
:101E3C000246FB68D31A41F28832934201D903233C
:101E4C0053E02D4B5B6803F00C027B685B689B00D6
:101E5C009A42EBD1274B1B6803F007033A689A426E
:101E6C0010D2244B1B6823F0070222493B68134312
:101E7C000B60204B1B6803F007033A689A4201D0B1
:101E8C00012332E07B681B6803F00403002B08D0AD
:101E9C00194B5B6823F4E0627B68DB6816491343DB
:101EAC004B607B681B6803F00803002B09D0124BB6
:101EBC005B6823F460527B681B69DB000E4913439B
:101ECC004B6000F021F802460B4B5B681B0903F0DA
:101EDC000F030A49CB5C22FA03F3094A1360094B3E
:101EEC001B681846FFF78AF9002318461037BD46C1
:101EFC0080BD00BF002002400010024018300008D6
:101F0C00180000204C00002080B487B000AF0023E4
:101F1C00FB600023BB6000237B6100237B600023FC
:101F2C003B611E4B5B68FB60FB6803F00C03042BEE
:101F3C0002D0082B03D027E0194B3B6127E0FB684C
:101F4C009B0C03F00F03174AD35C7B60FB6803F414
:101F5C008033002B10D0114B5B685B0C03F001033A
:101F6C00114AD35CBB607B680D4A02FB03F2BB6871
:101F7C00B2FBF3F37B6104E07B680C4A02FB03F3D6
:101F8C007B617B693B6102E0054B3B6100BF3B69B8
:101F9C0018461C37BD4680BC704700BF001002407D
:101FAC0000127A00283000083830000800093D0083
:101FBC0080B485B000AF78600A4B1B680A4AA2FB5C
:101FCC0003235B0A7A6802FB03F3FB6000BFFB6828
:101FDC005A1EFA60002BF9D100BF00BF1437BD4662
:101FEC0080BC704718000020D34D621080B582B0C1
:101FFC0000AF78607B68002B01D1012341E07B6846
:10200C0093F83D30DBB2002B06D17B68002283F8BD
:10201C003C207868FEF774FF7B68022283F83D2031
:10202C007B681A687B6804331946104600F056FA30
:10203C007B68012283F846207B68012283F83E20CE
:10204C007B68012283F83F207B68012283F84020C3
:10205C007B68012283F841207B68012283F84220AF
:10206C007B68012283F843207B68012283F844209B
:10207C007B68012283F845207B68012283F83D2090
:10208C00002318460837BD4680BD000080B485B0DB
:10209C0000AF78607B6893F83D30DBB2012B01D048
:1020AC00012335E07B68022283F83D207B681B68A6
:1020BC00DA687B681B6842F00102DA607B681B6897
:1020CC00164A934209D07B681B68B3F1804F04D049
:1020DC007B681B68124A934211D17B681B689B6812
:1020EC0003F00703FB60FB68062B10D07B681B68B2
:1020FC001A687B681B6842F001021A6007E07B6873
:10210C001B681A687B681B6842F001021A60002386
:10211C0018461437BD4680BC704700BF002C0140E8
:10212C000004004080B584B000AF78607B681B6809
:10213C00DB68FB607B681B681B69BB60BB6803F0DA
:10214C000203002B20D0FB6803F00203002B1BD0F2
:10215C007B681B686FF002021A617B6801221A7798
:10216C007B681B689B6903F00303002B03D0786822
:10217C0000F098F905E0786800F08BF9786800F0C9
:10218C009AF97B6800221A77BB6803F00403002BD2
:10219C0020D0FB6803F00403002B1BD07B681B686A
:1021AC006FF004021A617B6802221A777B681B6845
:1021BC009B6903F44073002B03D0786800F072F92C
:1021CC0005E0786800F065F9786800F074F97B68D0
:1021DC0000221A77BB6803F00803002B20D0FB68A1
:1021EC0003F00803002B1BD07B681B686FF0080200
:1021FC001A617B6804221A777B681B68DB6903F021
:10220C000303002B03D0786800F04CF905E07868E4
:10221C0000F03FF9786800F04EF97B6800221A77DD
:10222C00BB6803F01003002B20D0FB6803F01003F5
:10223C00002B1BD07B681B686FF010021A617B6847
:10224C0008221A777B681B68DB6903F44073002B48
:10225C0003D0786800F026F905E0786800F019F9E9
:10226C00786800F028F97B6800221A77BB6803F0C5
:10227C000103002B0CD0FB6803F00103002B07D0EB
:10228C007B681B686FF001021A617868FEF744FCEA
:10229C00BB6803F08003002B0CD0FB6803F08003B9
:1022AC00002B07D07B681B686FF080021A6178687E
:1022BC0000F06FFABB6803F04003002B0CD0FB68F6
:1022CC0003F04003002B07D07B681B686FF04002C3
:1022DC001A61786800F0F8F8BB6803F02003002B53
:1022EC000CD0FB6803F02003002B07D07B681B6825
:1022FC006FF020021A61786800F042FA00BF1037C4
:10230C00BD4680BD80B584B000AF786039600023D5
:10231C00FB737B6893F83C30012B01D10223B4E0B2
:10232C007B68012283F83C207B68022283F83D20E5
:10233C007B681B689B68BB60BB6823F07703BB6042
:10234C00BB6823F47F43BB607B681B68BA689A60E8
:10235C003B681B68B3F5005F3ED0B3F5005F00F23D
:10236C008780B3F5805F00F08680B3F5805F7FD8FF
:10237C00702B1AD0702B7BD8602B50D0602B77D859
:10238C00502B3CD0502B73D8402B58D0402B6FD8AF
:10239C00302B64D0302B6BD8202B60D0202B67D8FF
:1023AC00002B5CD0102B5AD062E07B6818683B681D
:1023BC0099683B685A683B68DB6800F06AF97B688F
:1023CC001B689B68BB60BB6843F07703BB607B6892
:1023DC001B68BA689A604FE07B6818683B6899681C
:1023EC003B685A683B68DB6800F053F97B681B68F4
:1023FC009A687B681B6842F480429A603CE07B6878
:10240C0018683B6859683B68DB681A4600F0CAF8E4
:10241C007B681B685021184600F021F92CE07B6882
:10242C0018683B6859683B68DB681A4600F0E8F8A6
:10243C007B681B686021184600F011F91CE07B6872
:10244C0018683B6859683B68DB681A4600F0AAF8C4
:10245C007B681B684021184600F001F90CE07B6892
:10246C001A683B681B681946104600F0F8F803E040
:10247C000123FB7300E000BF7B68012283F83D2041
:10248C007B68002283F83C20FB7B18461037BD4646
:10249C0080BD80B483B000AF786000BF0C37BD4600
:1024AC0080BC704780B483B000AF786000BF0C373D
:1024BC00BD4680BC704780B483B000AF786000BF6D
:1024CC000C37BD4680BC704780B483B000AF7860D9
:1024DC0000BF0C37BD4680BC7047000080B485B08F
:1024EC0000AF786039607B681B68FB607B682B4AA7
:1024FC00934207D07B68B3F1804F03D07B68284AA6
:10250C00934208D1FB6823F07003FB603B685B6867
:10251C00FA681343FB607B68204A934207D07B68C0
:10252C00B3F1804F03D07B681D4A934208D1FB68FE
:10253C0023F44073FB603B68DB68FA681343FB6071
:10254C00FB6823F080023B685B691343FB607B688C
:10255C00FA681A603B689A687B68DA623B681A68AA
:10256C007B689A627B680D4A934203D13B681A6977
:10257C007B681A637B6801225A617B681B6903F0D4
:10258C000103002B05D07B681B6923F001027B68DB
:10259C001A6100BF1437BD4680BC7047002C014047
:1025AC000004004080B487B000AFF860B9607A6076
:1025BC00FB681B6A7B61FB681B6A23F00102FB68EA
:1025CC001A62FB689B693B613B6923F0F0033B613A
:1025DC007B681B013A6913433B617B6923F00A0357
:1025EC007B617A69BB6813437B61FB683A699A61CA
:1025FC00FB687A691A6200BF1C37BD4680BC704705
:10260C0080B487B000AFF860B9607A60FB681B6A71
:10261C007B61FB681B6A23F01002FB681A62FB6883
:10262C009B693B613B6923F470433B617B681B03F3
:10263C003A6913433B617B6923F0A0037B61BB6860
:10264C001B017A6913437B61FB683A699A61FB68E9
:10265C007A691A6200BF1C37BD4680BC704780B4D3
:10266C0085B000AF786039607B689B68FB60FB6865
:10267C0023F07003FB603A68FB68134343F00703D5
:10268C00FB607B68FA689A6000BF1437BD4680BC5B
:10269C00704780B487B000AFF860B9607A603B6077
:1026AC00FB689B687B617B6923F47F437B613B68A0
:1026BC001A027B681A43BB6813437A6913437B6124
:1026CC00FB687A699A6000BF1C37BD4680BC7047B6
:1026DC0080B485B000AF786039607B6893F83C308B
:1026EC00012B01D1022341E07B68012283F83C20BD
:1026FC007B68022283F83D207B681B685B68FB606B
:10270C007B681B689B68BB60FB6823F07003FB60F5
:10271C003B681B68FA681343FB607B681B68FA68AC
:10272C005A607B681B68144A934209D07B681B680B
:10273C00B3F1804F04D07B681B68104A93420CD1D4
:10274C00BB6823F08003BB603B685B68BA681343CB
:10275C00BB607B681B68BA689A607B68012283F84F
:10276C003D207B68002283F83C2000231846143758
:10277C00BD4680BC704700BF002C014000040040E7
:10278C0080B483B000AF786000BF0C37BD4680BC0E
:10279C00704780B483B000AF786000BF0C37BD4683
:1027AC0080BC7047014B1868704700BF5400002074
:1027BC0070B500260C4D0D4C641BA410A64209D11B
:1027CC0000F018FC00260A4D0A4C641BA410A6420B
:1027DC0005D170BD55F8043B98470136EEE755F826
:1027EC00043B98470136F2E74030000840300008BF
:1027FC004030000848300008024B0146186800F0D1
:10280C000BB800BF54000020024B0146186800F0C2
:10281C00EFBA00BF5400002001F10B03162B2DE979
:10282C00F74F054606D933F0070704D50C232B6068
:10283C000024AEE11027B942F8D8284600F036FA49
:10284C00B7F5FC7FC34E38D207F108023244546806
:10285C00A2F108018C424FEAD70302D1D468A242FC
:10286C0010D06368D4E9021223F00303CA60234436
:10287C0091605A6842F001025A60284600F01CFA36
:10288C00083486E10233B44A34691146944277D055
:10289C00606820F0030CACEB07000F2848DDE11951
:1028AC0040F0010347F001076760C6E90411C1E974
:1028BC0002224B6044F80C00DFE77B0A2AD0042B81
:1028CC0012D8BB0938335A1C06EBC2025468A2F169
:1028DC00080C644506D0626822F00302D01B0F2856
:1028EC001CDD013B0133CEE7142B01D85B33EAE747
:1028FC00542B02D83B0B6E33E5E7B3F5AA7F02D815
:10290C00FB0B7733DFE740F25452934204D8BB0CF5
:10291C007C33D8E73F23D6E77E23D4E70028E16851
:10292C0004DBA368D9608B60A318A2E70C46D0E740
:10293C000028C6E9042207DBA444DCF8043043F089
:10294C000103CCF8043098E7BCF5007F706880F088
:10295C009E804FEADC024FEA5C1E4FF0010C0CFA31
:10296C000EFC4CEA0000013256F832C0706006EBE7
:10297C00C2000838C4E902C046F83240CCF80C401A
:10298C0001209A1000FA02F27068904226D310428D
:10299C0006D123F003035200104203F10403FAD0D2
:1029AC0006EBC308C1469E46D9F80C404C4540F096
:1029BC00B3800EF1010E1EF0030F09F10809F3D1DB
:1029CC00980740F0EC80736823EA02037360706828
:1029DC005200904202D3002A40F0ED80D6F808B0A5
:1029EC00DBF8041021F00309B94504D3A9EB070265
:1029FC000F2A00F34881594A0BEB09031168082090
:102A0C00103139440193009100F06CF9DDE90013A9
:102A1C008046534A106801301FBF01F1FF31414419
:102A2C00C8F1000001402846CDE9001300F04AF936
:102A3C00421C044600F0FB80019B00998342484AEB
:102A4C0002D9B34540F0F380DFF820A1A342DAF8B5
:102A5C00000008F1FF3C00EB010ECAF800E040F06A
:102A6C00AC8013EA0C0F40F0A880B368494441F0E5
:102A7C00010159603B4ADAF8003011688B4288BF7B
:102A8C001360394A11688B4288BF1360CFE0BCF5E4
:102A9C00206F4FEA5C2218D24FEA9C12383202F1B6
:102AAC00010E56F83EE006EBC208F0452BD14FF074
:102ABC00010C92100CFA02F210437060C4E902E8A7
:102ACC00C8F80840CEF80C405AE7142A01D85B32FB
:102ADC00E5E7542A03D84FEA1C326E32DFE7B2F531
:102AEC00AA7F03D84FEADC327732D8E740F2545E43
:102AFC00724596BF4FEA9C427E227C32CFE7DEF8CD
:102B0C0008E0F04505D0DEF8042022F0030262450F
:102B1C00F5D8DEF80C80D1E76068D4F80CC020F052
:102B2C000300A0EB070ABAF10F0F21DDA368E2192D
:102B3C0047F001076760C3F80CC0CCF808304AF0C6
:102B4C000103C6E90422C2E90211536044F800A053
:102B5C0093E600BF800400208804002000090020B8
:102B6C0088080020F8080020FC080020D00800206D
:102B7C00BAF1000F11DB2044436843F001034360BA
:102B8C0054F8083F2846C3F80CC0CCF8083000F0C5
:102B9C0093F8204603B0BDE8F08F644606E758F87A
:102BAC000809013B40453FF40BAF10E704335200DA
:102BBC001042FBD0F4E67346FAE7106801301BBFF5
:102BCC00E31A73441460CAF8003014F007030EBF04
:102BDC001846C3F108002418621802EA0C0180445C
:102BEC00A8EB010808EA0C0841462846019300921C
:102BFC0000F068F8431CDDE9002305D12BB34FF03E
:102C0C000008A3F108001044DAF80020001B40442F
:102C1C00424440F00100B345B460CAF80020606043
:102C2C003FF428AFB9F10F0F12D801236360B368DA
:102C3C005B6823F00303BB42A3EB070201D30F2A0B
:102C4C0021DC284600F038F8F2E510469846DBE720
:102C5C000522DBF80430A9F10C0929F0070903F06F
:102C6C00010343EA0903CBF80430B9F10F0F0BEB66
:102C7C000903C3E901227FF6FDAE28460BF10801DA
:102C8C0000F0B6F8F6E6B46847F0010342F0010232
:102C9C0027446360B7607A60EFE500BF03460244E7
:102CAC00934200D1704703F8011BF9E7014800F08B
:102CBC005FB900BF6C090020014800F05AB900BF91
:102CCC006C09002038B50023054D044608462B60DE
:102CDC00FEF76CF9431C02D12B6803B1236038BD9D
:102CEC0074090020082808B506D0FFF75BFD1623F1
:102CFC0003604FF0FF3008BD4FF48050FBE700003D
:102D0C00024B13B1024800F005B8704700000000F8
:102D1C002D2D0008002301461A46184600F02AB94A
:102D2C0038B5074D074C641BA4101CB9BDE83840DE
:102D3C0000F066B9013C55F824309847F5E700BF20
:102D4C00483000084C3000082DE9F04106460820B8
:102D5C000C46FFF7C7FF8046224F3046FFF7A6FF11
:102D6C00BB685D6825F003052C1B113C4444B4FB87
:102D7C00F8F4013C08FB04F4A04505DD3046FFF7F0
:102D8C009BFF0020BDE8F08100213046FFF79AFF41
:102D9C00BB682B449842F1D130466142FFF792FF59
:102DAC00013010D100213046FFF78CFFBA68831A2E
:102DBC000F2BE3DD0C4943F0010309685360401A03
:102DCC000A490860DAE7BB68084A2D1B45F0010583
:102DDC005D60136830461C1B1460FFF76DFF01200B
:102DEC00D0E700BF8004002088080020D008002015
:102DFC00F8B505460F46002900F0B180FFF756FFE5
:102E0C0057F8042C564822F00104A7F1080303EBF1
:102E1C00040C8168DCF80460614526F0030602F0BE
:102E2C0001021BD134443AB957F8082C9B1A1444AC
:102E3C00D3E90212CA60916044F001025A608360C7
:102E4C00484B1B68A34204D8474B28461968FFF728
:102E5C007BFF2846BDE8F840FFF72EBFCCF8046096
:102E6C00002A38D157F8081C00F108075B1A0C44EB
:102E7C009968B94231D0DF68CF60B9600CEB0601BC
:102E8C004968C9070BD4DCF8081034443ABB374EF8
:102E9C00B14224D10122C0E90433C3E9021144F048
:102EAC00010159601C51002AD3D1B4F5007F1BD20B
:102EBC006109E20801248C40416801320C434460F2
:102ECC0000EBC20150F832400839C3E9024140F826
:102EDC003230E360BDE70022D0E70122CEE7DCF818
:102EEC000C60CE60B160DAE7B4F5206F4FEA542283
:102EFC0014D2A2093832511C50F8311000EBC20622
:102F0C008E4225D10124921004FA02F24468224325
:102F1C004260C3E90216B360CB609AE7142A01D869
:102F2C005B32E8E7542A02D8220B6E32E3E7B2F5A3
:102F3C00AA7F02D8E20B7732DDE740F254518A4285
:102F4C0096BFA20C7E227C32D5E789688E4204D0D3
:102F5C004A6822F00302A242F7D8CE68D9E7F8BD3E
:102F6C00800400208C080020000900208804002028
:102F7C00704770472DE9F8431C4D06462868984663
:102F8C000F469146FFF7F4FF194B28461B68D3F800
:102F9C0048411CB903F5A674C3F84841656800683C
:102FAC001F2D05DDFFF7E5FF4FF0FF30BDE8F8837F
:102FBC009EB1012204EB8501C1F88890D4F88831C8
:102FCC00AA401343022EC4F88831C1F8088102BF0D
:102FDC00D4F88C311A43C4F88C216B1C0235636015
:102FEC0044F82570FFF7C5FF0020DFE790080020AC
:102FFC003C300008F8B500BFF8BC08BC9E467047D2
:0C300C00F8B500BFF8BC08BC9E46704739
:103018000000000000000000010203040607080980
:1030280002030405060708090A0B0C0D0E0F101001
:08303800010200005800002015
:083040000D2D0008310100080C
:043048000D0100086E
:10304C0001000000010000000B0000000500000062
:10305C00020000000300000000127A008000000152
:10306C000002000400080010002000400080000056
:10307C000800100020004000800000010002000049
:10308C0002001000080040000400200010000000A6
:10309C000100000058000020000000004403002044
:1030AC00AC0300201404002000000000000000000D
:1030BC000000000000000000000000000000000004
:1030CC0000000000000000000000000000000000F4
:1030DC0000000000000000000000000000000000E4
:1030EC0000000000000000000000000000000000D4
:1030FC0000000000000000000000000000000000C4
:10310C0000000000000000000000000000000000B3
:10311C0000000000000000000000000000000000A3
:10312C000000000000000000000000000000000093
:10313C000000000000000000000000000000000083
:10314C0001000000000000000E33CDAB34126DE620
:10315C00ECDE05000B000000000000000000000089
:10316C000000000000000000000000000000000053
:10317C000000000000000000000000000000000043
:10318C000000000000000000000000000000000033
:10319C000000000000000000000000000000000023
:1034CC0000000000000000008004002080040020A8
:1034DC008804002088040020900400209004002020
:1034EC009804002098040020A0040020A0040020D0
:1034FC00A8040020A8040020B0040020B004002080
:10350C00B8040020B8040020C0040020C00400202F
:10351C00C8040020C8040020D0040020D0040020DF
:10352C00D8040020D8040020E0040020E00400208F
:10353C00E8040020E8040020F0040020F00400203F
:10354C00F8040020F80400200005002000050020ED
:10355C00080500200805002010050020100500209B
:10356C00180500201805002020050020200500204B
:10357C0028050020280500203005002030050020FB
:10358C0038050020380500204005002040050020AB
:10359C00480500204805002050050020500500205B
:1035AC00580500205805002060050020600500200B
:1035BC0068050020680500207005002070050020BB
:1035CC00780500207805002080050020800500206B
:1035DC00880500208805002090050020900500201B
:1035EC009805002098050020A0050020A0050020CB
:1035FC00A8050020A8050020B0050020B00500207B
:10360C00B8050020B8050020C0050020C00500202A
:10361C00C8050020C8050020D0050020D0050020DA
:10362C00D8050020D8050020E0050020E00500208A
:10363C00E8050020E8050020F0050020F00500203A
:10364C00F8050020F80500200006002000060020E8
:10365C000806002008060020100600201006002096
:10366C001806002018060020200600202006002046
:10367C0028060020280600203006002030060020F6
:10368C0038060020380600204006002040060020A6
:10369C004806002048060020500600205006002056
:1036AC005806002058060020600600206006002006
:1036BC0068060020680600207006002070060020B6
:1036CC007806002078060020800600208006002066
:1036DC008806002088060020900600209006002016
:1036EC009806002098060020A0060020A0060020C6
:1036FC00A8060020A8060020B0060020B006002076
:10370C00B8060020B8060020C0060020C006002025
:10371C00C8060020C8060020D0060020D0060020D5
:10372C00D8060020D8060020E0060020E006002085
:10373C00E8060020E8060020F0060020F006002035
:10374C00F8060020F80600200007002000070020E3
:10375C000807002008070020100700201007002091
:10376C001807002018070020200700202007002041
:10377C0028070020280700203007002030070020F1
:10378C0038070020380700204007002040070020A1
:10379C004807002048070020500700205007002051
:1037AC005807002058070020600700206007002001
:1037BC0068070020680700207007002070070020B1
:1037CC007807002078070020800700208007002061
:1037DC008807002088070020900700209007002011
:1037EC009807002098070020A0070020A0070020C1
:1037FC00A8070020A8070020B0070020B007002071
:10380C00B8070020B8070020C0070020C007002020
:10381C00C8070020C8070020D0070020D0070020D0
:10382C00D8070020D8070020E0070020E007002080
:10383C00E8070020E8070020F0070020F007002030
:10384C00F8070020F80700200008002000080020DE
:10385C00080800200808002010080020100800208C
:10386C00180800201808002020080020200800203C
:10387C0028080020280800203008002030080020EC
:10388C00380800203808002040080020400800209C
:10389C00480800204808002050080020500800204C
:1038AC0058080020580800206008002060080020FC
:1038BC0068080020680800207008002070080020AC
:1038CC007808002078080020FFFFFFFF00000200AE
:0438DC006809002057
:04000005080011914D
:00000001FF
